:020000040000FA
:04000000903105290D
:08000800EC08031D08280800A4
:10001000F9300000000000000000FF3E031D092829
:1000200000000000000000000000EC0B08280800A1
:10003000FA30EC000420FA30EC000420FA30EC0036
:100040000420FA30EC000420E40B182808003708DC
:1000500023009A009E1C2A28080020000E1521006B
:1000600034089038B70027207F3021003505B700CD
:1000700027202100B701272020000E1108002000B2
:100080000E15210034089038B70027207F3021005A
:100090003505B70027207F3021003605B70027201F
:1000A00020000E1108003D08C1003E08C2004008B3
:1000B000003C031866284208850041088400C10AF4
:1000C0000319C20A3F088000C00357283D08C30037
:1000D0003E08C40008003408B9003508BA003608E4
:1000E000BB003708BC003808003C03188B283C08CC
:1000F00085003B088400BB0A0319BC0A0008BD0048
:100100003A08850039088400B90A0319BA0A3D087B
:100110008000B80373283408BD003508BE0008000D
:1001200034082B3EB9003708850036088400B80132
:100130003808840739088000B90134082F3EBA0016
:100140000318B90AB80135030319B80A3808BA0701
:100150003708850036088400013084073A0880009B
:10016000BA013408323EBB000318BA0AB8010230A3
:1001700035020319B80AB901B835B90D3808BB07FB
:100180003708850036088400023084073B08800069
:10019000BA013408373EBB000318BA0AB80103306D
:1001A00035020319B80AB901B835B90D3808BB07CB
:1001B0003708850036088400033084073B08800038
:1001C000B90134083B3EBA000318B90AB801350337
:1001D0000319B80A3808BA073708850036088400BA
:1001E000043084073A0880003408433EB8003608DB
:1001F0008400053084073808800008003408283E51
:10020000B9003708850036088400B801380884072B
:100210003908800034082F3EB800360884000130C9
:10022000840738088000BA013408343EBB00031844
:10023000BA0AB801033035020319B80AB901B83552
:10024000B90D3808BB07370885003608840002302E
:1002500084073B088000BA013408373EBB0003180E
:10026000BA0AB80135030319B80AB901B835B90D8E
:100270003808BB0737088500360884000330840738
:100280003B088000BA0134083B3EBB000318BA0AA1
:10029000B801023035020319B80AB901B835B90DF1
:1002A0003808BB0737088500360884000430840707
:1002B0003B0880003408403EB80036088400053012
:1002C00084073808800008003408283EB900370841
:1002D000850036088400B801380884073908800092
:1002E00034082F3EB80036088400013084073808EF
:1002F0008000BA013408343EBB000318BA0AB801C2
:10030000033035020319B80AB901B835B90D3808F8
:10031000BB073708850036088400023084073B0895
:100320008000B9013408383EBA000318B90AB80190
:1003300035030319B80A3808BA07370885003608A4
:100340008400033084073A088000BA0134083B3E39
:10035000BB000318BA0AB801023035020319B80A03
:10036000B901B835B90D3808BB073708850036081C
:100370008400043084073B0880003408403EB80005
:1003800036088400053084073808800008003408E7
:10039000283EB9003708850036088400B8013808BF
:1003A00084073908800034082F3EB80036088400DE
:1003B0000130840738088000BA013408323EBB009F
:1003C0000318BA0AB801033035020319B80AB90193
:1003D000B80DB90DB80DB90DFC303805BB0737089D
:1003E000850036088400023084073B088000B9018C
:1003F0003408383EBA000318B90AB80135030319A6
:10040000B80A3808BA073708850036088400033070
:1004100084073A088000BA0134083B3EBB00031849
:10042000BA0AB801023035020319B80AB901B83561
:10043000B90D3808BB07370885003608840004303A
:1004400084073B0880003408403EB800360884002A
:1004500005308407380880000800803020005505EA
:100460000030031956050319412A210034082D3E96
:10047000B800370885003608840001308407380842
:10048000800021003408323EB80037088500360865
:1004900084000230840738088000BA013408393EED
:1004A000BB000318BA0AB801023035020319B80AB2
:1004B000B901B835B90D3808BB07370885003608CB
:1004C0008400033084073B08800034083E3EB800B7
:1004D000360884000430840738088000B9013408E5
:1004E000413EBC000318B90AB80135030319B80A24
:1004F000BB01B835BB0D3808BC073908BB3DBA0194
:10050000033035020319BA0A3A08BC0237088500DD
:1005100036088400053084073C08800008008030DD
:10052000200055050030031956050319A32A2100A0
:1005300034082D3EB80037088500360884000130A5
:1005400084073808800021003408323EB80037089C
:100550008500360884000230840738088000BA011C
:100560003408393EBB000318BA0AB801023035021C
:100570000319B80AB901B835B90D3808BB073708EF
:10058000850036088400033084073B088000340867
:100590003E3EB800360884000430840738088000E6
:1005A000BB013408423EBC000318BB0AB801350346
:1005B0000319B80A3808BC070318BB0AB90103308D
:1005C00035020319B90ABA01B935BA0D3908BC02A6
:1005D0003708850036088400053084073C08800011
:1005E0000800803020005505003003195605031916
:1005F000052B210034082D3EB80037088500360849
:100600008400013084073808800021003408323E1D
:10061000B80037088500360884000230840738089F
:100620008000BA013408393EBB000318BA0AB80189
:10063000023035020319B80AB901B835B90D3808C6
:10064000BB073708850036088400033084073B0861
:10065000800034083C3EB80036088400043084072B
:1006600038088000BB013408423EBC000318BB0AB6
:10067000B80135030319B80A3808BC070318BB0AC8
:10068000B901033035020319B90ABA01B935BA0DF7
:100690003908BC0237088500360884000530840715
:1006A0003C08800008008030200055050030031908
:1006B00056050319682B210034082B3EB900370872
:1006C000850036088400B80138088407390880009E
:1006D00021003408303EB800370885003608840011
:1006E0000130840738088000B9013408343EBA006C
:1006F0000318B90AB80135030319B80A3808BA074C
:100700003708850036088400023084073A088000E4
:10071000BA013408373EBB000318BA0AB8010230E8
:1007200035020319B80AB901B835B90D3808BB0745
:100730003708850036088400033084073B088000B2
:10074000BA0134083C3EBB000318BA0AB8010330B2
:1007500035020319B80AB901B835B90D3808BB0715
:100760003708850036088400043084073B08800081
:10077000B9013408403EBA000318B90AB80135037C
:100780000319B80A3808BA07370885003608840004
:10079000053084073A0880000800803020005505A5
:1007A0000030031956050319E22B210034082B3EB3
:1007B000B9003708850036088400B8013808840776
:1007C0003908800021003408303EB8003708850021
:1007D000360884000130840738088000B9013408E5
:1007E000343EBA000318B90AB80135030319B80A30
:1007F0003808BA07370885003608840002308407B5
:100800003A088000B90134083A3EBA000318B90A20
:10081000B801023035020319B80A3808BA0237089D
:10082000850036088400033084073A088000BA0146
:1008300034083C3EBB000318BA0AB8010330350245
:100840000319B80AB901B835B90D3808BB0737081C
:10085000850036088400043084073B088000B90115
:100860003408403EBA000318B90AB8013503031929
:10087000B80A3808BA0737088500360884000530FA
:1008800084073A08800008008030200055050030B9
:10089000031956050319592C21003408283EB900C4
:1008A0003708850036088400B801380884073908FD
:1008B0008000210034082D3EB80037088500360836
:1008C00084000130840738088000BA013408343EBF
:1008D000BB000318BA0AB801023035020319B80A7E
:1008E000B901B835B90D3808BB0737088500360897
:1008F0008400023084073B088000BA013408393E86
:10090000BB000318BA0AB801033035020319B80A4C
:10091000B901B835B90D3808BB0737088500360866
:100920008400033084073B088000BA0134083C3E51
:10093000BB000318BA0AB80135030319B80AB90194
:10094000B835B90D3808BB0737088500360884006C
:10095000043084073B0880003408403EB800360865
:1009600084000530840738088000080080302000AB
:1009700055050030031956050319CB2C2100340806
:10098000283EB9003708850036088400B8013808C9
:10099000840739088000210034082D3EB80037084C
:1009A0008500360884000130840738088000BA01C9
:1009B0003408343EBB000318BA0AB80102303502CD
:1009C0000319B80AB901B835B90D3808BB0737089B
:1009D000850036088400023084073B088000BA0195
:1009E0003408393EBB000318BA0AB8010330350297
:1009F0000319B80AB901B835B90D3808BB0737086B
:100A0000850036088400033084073B088000B90164
:100A100034083D3EBA000318B90AB801350303197A
:100A2000B80A3808BA073708850036088400043049
:100A300084073A0880003408403EB8003608840035
:100A400005308407380880000800803020005505F4
:100A500000300319560503193A2D21003408283EA9
:100A6000B9003708850036088400B80138088407C3
:100A700039088000210034082D3EB8003708850071
:100A8000360884000130840738088000BA01340831
:100A9000343EBB000318BA0AB8010230350203190C
:100AA000B80AB901B835B90D3808BB073708850051
:100AB00036088400023084073B088000BA013408FD
:100AC000373EBB000318BA0AB801033035020319D8
:100AD000B80AB901B80DB90DB80DB90DFC3038051B
:100AE000BB073708850036088400033084073B08BD
:100AF0008000B90134083D3EBA000318B90AB801B4
:100B000035030319B80A3808BA07370885003608CC
:100B10008400043084073A0880003408403EB8005E
:100B2000360884000530840738088000080021005A
:100B3000B5017E08BD007F08BE00FF30BF00103049
:100B4000C000532000308500B03084003508B50A5D
:100B50008407003080007A0885007908840002301C
:100B600084070008033A031DBE2D00308500B03015
:100B700084003508B50A8407023080007A088500B1
:100B800079088400023084070003031DD12D003052
:100B90008500B03084003508B50A84070530800030
:100BA000F42D7A088500790884000008BD003D080E
:100BB000023A0319E12D043A0319E12D053A031D08
:100BC000EB2D00308500B03084003508B50A84076D
:100BD00003308000F42D00308500B03084003508EB
:100BE000B50A8407043080007A08850079088400FB
:100BF0000008B6003608073A0319022E043A031912
:100C00000C2E162E00308500B03084003508B50A51
:100C10008407083080001F2E00308500B03084002B
:100C20003508B50A8407063080001F2E0030850085
:100C3000B03084003508B50A8407073080007A0890
:100C4000850079088400023084070008023A031DF9
:100C5000322E00308500B03084003508B50A840794
:100C6000093080007A088500790884000008B70000
:100C70003708043A0319432E023A0319432E033A64
:100C800003194D2E562E00308500B03084003508F3
:100C9000B50A84070A308000562E00308500B03037
:100CA00084003508B50A84070B3080007A08850077
:100CB000790A84007C080007B800B901BA01BB01B9
:100CC000BC017D083B023C080318682E03196A2EFC
:100CD000BC1F982E00308500B0308400390884078E
:100CE00000083807BE007F0885007E0884003B08A6
:100CF000BD00BB0A0319BC0A3D0884073E088000FA
:100D0000B90A0319BA0A3A08803ABD0080303D0298
:100D1000031D8C2E35083902031C612EFB0B932E0C
:100D20003B08BD0008000C30B807B901BA01612EBC
:100D30003B08BD000800FC08031D0800FD01FE0182
:100D400010307D027E080318A72E0319A92EFE1F5E
:100D500008007A08850079087D078400000A0319D5
:100D6000C32E7B082100B4007A08850079087D072E
:100D700084000008B5002D207A08850079087D07D9
:100D80008400FF308000FD0A0319FE0AA02E210016
:100D9000B001B1011030300231080318D12E03190F
:100DA000D32EB11F2F2F7A088500790830078400D1
:100DB000000A03192B2FFF080319192FB201B301E1
:100DC0001030320233080318E72E0319E92EB31F3F
:100DD000002F7C0885007B0884003208B4003408AA
:100DE00084070008B5007A08850079083007840078
:100DF000350800060319002FB20A0319B30AE02EC2
:100E00001030320603193308031D2B2F7D08B40060
:100E10007A0885007908300784000008B5002D2085
:100E20007A0885007908210030078400FF308000AF
:100E30002B2F7D08B4007A088500790830078400DC
:100E40000008B5002D207A088500790821003007B8
:100E50008400FF308000B00A0319B10ACA2EFE08D0
:100E600003197E2FB001B101103030023108031890
:100E70003B2F03193D2FB11F7E2F7C0885007B0877
:100E800030078400000A0319792FB201B301103032
:100E90003202330803184E2F0319502FB31F672F48
:100EA0007C0885007B0884003008B400340884077F
:100EB0000008B5007A0885007908320784003508F3
:100EC00000060319672FB20A0319B30A472F10301F
:100ED000320603193308031D792F7D08B4007C08FE
:100EE00085007B08300784000008B5007E08B60046
:100EF0003F202100B00A0319B10A342F7908B40049
:100F00007A08B5007B08B6007C08B7001030B8003E
:100F10006B2008007C082100BD007D08BE00FF306A
:100F2000BF001030C0005320B401B501B601B701B5
:100F3000FF0110307B07FE000318FF0A7F087A02CA
:100F4000031DA42F7E087902031CA82FFA1F080096
:100F500000303404350436043704FF39031DB52F3F
:100F6000B4010830B500B601B70134083005031DDF
:100F7000C52F35083105031DC52F36083205031D61
:100F8000C52F370833050319D92F7A08803AB800DE
:100F900080303802031DCE2F7B087902031CD92F25
:100FA0007D0885007C0884007B0879028407790825
:100FB0008000F90A0319FA0AB736B60CB50CB40C5E
:100FC000982F7C082100BD007D08BE00FF30BF00C7
:100FD0001030C00053207A0885007908840000088A
:100FE000FE007E08013A0319FD2F033A88310319E8
:100FF000FD28063A0319FE29FE2A7A088500790A97
:1010000084000008FF007F08003A883103192A286D
:10101000013A03193B28033A03194D28013A0319F1
:101020005E28073A03197028013A03198128033A08
:1010300003199328013A0319A5280F3A0319B62872
:10104000013A0319C828033A0319D928013A0319A8
:10105000EB28002BB4017A0885007908840002305F
:1010600084070008B5007C08B6007D08B700803111
:1010700053238831002B0430B4007A0885007908A6
:101080008400023084070008B5007C08B6007D08A3
:10109000B7008031B6248831002BB4017A0885006E
:1010A00079088400023084070008B5007C08B60087
:1010B0007D08B70080318F228831002B0630B400C4
:1010C0007A08850079088400023084070008B5009A
:1010D0007C08B6007D08B7008031B6248831002B2B
:1010E000B4017A088500790884000230840700087A
:1010F000B5007C08B6007D08B700803164218831D6
:10110000002B0130B4007A08850079088400023091
:1011100084070008B5007C08B6007D08B700803160
:1011200064218831002B0230B4007A0885007908E8
:101130008400023084070008B5007C08B6007D08F2
:10114000B700803164218831002BB4017A08850012
:1011500079088400023084070008B5007C08B600D6
:101160007D08B700803190208831002B0430B40016
:101170007A08850079088400023084070008B500E9
:101180007C08B6007D08B700803164218831002BCF
:10119000B4017A08850079088400023084070008C9
:1011A000B5007C08B6007D08B7008031B6248831D0
:1011B000002B0130B4007A088500790884000230E1
:1011C00084070008B5007C08B6007D08B7008031B0
:1011D000B6248831002B0230B4007A0885007908E3
:1011E0008400023084070008B5007C08B6007D0842
:1011F000B7008031B6248831002B7A088500790A3F
:1012000084000008B0003008003A03192929013A87
:1012100003193B29033A03194D29013A03195E29A1
:10122000073A03197029013A03198129033A03196E
:101230009329013A0319A5290F3A0319B729013A4D
:101240000319C929033A0319DA29013A0319EC29C8
:10125000002B0330B4007A0885007908840002303E
:1012600084070008B5007C08B6007D08B70080310F
:1012700044248831002B0430B4007A0885007908B2
:101280008400023084070008B5007C08B6007D08A1
:10129000B700803144248831002BB4017A088500DE
:1012A00079088400023084070008B5007C08B60085
:1012B0007D08B70080312D228831002B0630B40024
:1012C0007A08850079088400023084070008B50098
:1012D0007C08B6007D08B700803144248831002B9B
:1012E000B4017A0885007908840002308407000878
:1012F000B5007C08B6007D08B7008031FE2088313B
:10130000002B0130B4007A0885007908840002308F
:1013100084070008B5007C08B6007D08B70080315E
:10132000FE208831002B0230B4007A08850079084D
:101330008400023084070008B5007C08B6007D08F0
:10134000B7008031FE208831002B0330B4007A08CA
:10135000850079088400023084070008B5007C0805
:10136000B6007D08B7008031FE208831002B0430A4
:10137000B4007A08850079088400023084070008E8
:10138000B5007C08B6007D08B7008031FE208831AA
:10139000002BB4017A0885007908840002308407A4
:1013A0000008B5007C08B6007D08B70080314424F1
:1013B0008831002B0130B4007A0885007908840058
:1013C000023084070008B5007C08B6007D08B7002D
:1013D000803144248831002B0230B4007A08850023
:1013E00079088400023084070008B5007C08B60044
:1013F0007D08B700803144248831002B7A088500AD
:10140000790A84000008B1003108003A03192A2A39
:10141000013A03193B2A033A03194D2A013A0319E9
:101420005E2A073A0319702A013A0319812A033AFE
:101430000319932A013A0319A52A0F3A0319B72A67
:10144000013A0319C92A033A0319DA2A013A03199E
:10145000EC2A002BB4017A08850079088400023058
:1014600084070008B5007C08B6007D08B70080310D
:10147000CD238831002B0430B4007A088500790828
:101480008400023084070008B5007C08B6007D089F
:10149000B700803125258831002BB4017A088500FA
:1014A00079088400023084070008B5007C08B60083
:1014B0007D08B7008031F1228831002B0630B4005E
:1014C0007A08850079088400023084070008B50096
:1014D0007C08B6007D08B700803125258831002BB7
:1014E000B4017A0885007908840002308407000876
:1014F000B5007C08B6007D08B7008031C72188316F
:10150000002B0130B4007A0885007908840002308D
:1015100084070008B5007C08B6007D08B70080315C
:10152000C7218831002B0230B4007A088500790881
:101530008400023084070008B5007C08B6007D08EE
:10154000B7008031C7218831002B0330B4007A08FE
:10155000850079088400023084070008B5007C0803
:10156000B6007D08B7008031C7218831002B0430D8
:10157000B4007A08850079088400023084070008E6
:10158000B5007C08B6007D08B7008031C7218831DE
:10159000002BB4017A0885007908840002308407A2
:1015A0000008B5007C08B6007D08B700803125250D
:1015B0008831002B0130B4007A0885007908840056
:1015C000023084070008B5007C08B6007D08B7002B
:1015D000803125258831002B0230B4007A0885003F
:1015E00079088400023084070008B5007C08B60042
:1015F0007D08B700803125258831002BB401080013
:10160000B201B3011030320233080318092B031959
:101610000B2BB31F1E2B7D0885007C08320784002E
:10162000000A03191A2B7D0885007C083207840004
:101630007B088007B20A0319B30A022B0630B400F4
:10164000080023009518212B200064082300910036
:1016500020006508230093009513151520006610DF
:101660008B1B66148B13553023009600AA3096000E
:1016700095141511200066188B17661C8B13080033
:1016800023009518402B20006A0823009100951331
:10169000151413082000EB0008005508E800560850
:1016A000E900EA01EB0164086805031D632B650886
:1016B0006905031D632B66086A05031D632B670814
:1016C0006B050319722B6409EC006509ED006C08C9
:1016D000D5056D08D6050E150A30EC0080310420C2
:1016E0000E1108006408D5046508D6040E150A30EA
:1016F000EC00803104200E116430EC0004200E1543
:101700000A30EC0004200E110800E501E6018030EB
:101710006502660803188E2B0319902BE61F08003C
:1017200064082100B400200065082100B500803164
:101730002D20E50A0319E60A8831872B2000E401F1
:101740007B30E50021230130E4005608E500212329
:101750000230E4005508E50021230E150230E400B4
:10176000803118200E1108006408D5006508D600E5
:101770000E150A30EC00803104200E116430EC00AC
:1017800004200E150A30EC0004200E116430EC0029
:1017900004200E150A30EC0004200E116430EC0019
:1017A000042008006408EB006508EC006608ED0002
:1017B0006708EE006808003C0318002C6C088500E0
:1017C0006B088400EB0A0319EC0A0008E9006E08B4
:1017D00085006D088400ED0A0319EE0A0008EA008E
:1017E0006A0869060319FE2B6A0869020318FB2BB5
:1017F000FF30EF0008000130EF000800E803DA2BAB
:10180000EF0108002000EA0140236B087B3A03192E
:101810000E2C4708D5004808D600212C0130EA00DC
:1018200040236B08E900E701E8010230EA004023A9
:101830006B08E400E50164086804D50065086904E4
:10184000D6000E150A30EC00803104200E116430F1
:10185000EC0004200E150A30EC0004200E11643058
:10186000EC0004200E150A30EC0004200E11643048
:10187000EC00042008006409E8006509E900680834
:10188000D5056908D6050800650885006408840048
:101890008008031D7F2C0030FA002030F900580822
:1018A000FB0000305505FD0056080139FE00FF0120
:1018B000FD080319FF0AFE08031DFF01FC01FF08D4
:1018C0000319FC0A80319B260030FA003030F90001
:1018D00020005A08FB0000305505FD005608043969
:1018E000FE00FF01FD080319FF0AFE08031DFF01AA
:1018F000FC01FF080319FC0A9B268831DE2D2030ED
:1019000055050030031956050319DE2C6408F9004B
:101910006508FA000C30FB000030FD006830FC0068
:101920008031E1273408F800F808031DAA2C2000B4
:101930006408F9006508FA00FF30FB003C30FC0049
:101940000630FD000030FF006830FE008031972532
:101950000630F800403020005505003003195605C8
:10196000883103196C2DE601E7010630660267082D
:101970000318BC2C0319BE2CE71FDB2C003085009C
:101980006830840066088407000A0319D72C0030E9
:101990008500683084006608840700080C3EF90062
:1019A0006830840066080A3E840779088000E60AE9
:1019B0000319E70AB52C1030F8006C2DD61EFA2C4E
:1019C00065088500640A84000008F900FA013030D7
:1019D000FB00FF302100B0000F30B100B201B301B5
:1019E0000030FD006830FC0080318A271030F8009C
:1019F00088316C2D561F3E2D6508850064088400D3
:101A00000008023A03190C2D65088500640884005B
:101A10000008063A031D242D65088500640A840029
:101A20000008F900FA013030FB005A302100B00004
:101A30000B30B100B201B3010030FD006830FC0092
:101A400080318A2788313A2D65088500640A840030
:101A50000008F900FA013030FB00D5302100B00059
:101A60000A30B100B201B3010030FD006830FC0063
:101A700080318A271030F80088316C2DD61F5A2DFE
:101A800065088500640A84000008F900FA01303016
:101A9000FB0094302100B0000A30B100B201B30164
:101AA0000030FD006830FC0080318A271030F800DB
:101AB00088316C2D6408F9006508FA00FF30FB00DE
:101AC0002430FC001030FD000030FF006830FE00C4
:101AD000803197251030F80000302100BE00A03082
:101AE000BD00FF30BF001030C000803153200030F7
:101AF000B500A030B4000030B7006830B6007808F8
:101B0000B8006B200030FA002030F9000030FC00F3
:101B1000A030FB0020005808FD00FE0100305505F4
:101B20002100B0002000560802392100B100B201A6
:101B3000B0080319B20AB108031DB201FF01B208CF
:101B40000319FF0AC726103020005505003003197D
:101B5000560588310319DE2D6408F9006508FA007E
:101B60000130FB002430FC001030FD000030FF008D
:101B7000A030FE00803197250030FA003030F900A7
:101B80000030FC00A030FB0020005A08FD005B087C
:101B9000FE00003055052100B0002000560808392D
:101BA0002100B100B201B0080319B20AB108031D47
:101BB000B201FF01B2080319FF0AC7262000650819
:101BC0008500640884000008C400840A0008C50079
:101BD000840A0008C60008002000DC01DD01013095
:101BE0005C025D080318F62D0319F82DDD1F062E83
:101BF0000E150130E400803118200E11FA30EC008F
:101C00000420DC0A0319DD0A8831EF2D0E150A3095
:101C1000EC00803104200E11FA30EC000420DC01CD
:101C2000DD0101305C025D0888310318192E0319AB
:101C30001B2EDD1F292E0E150130E40080311820E7
:101C40000E11FA30EC000420DC0A0319DD0A883199
:101C5000112E0E150A30EC00803104200E11080000
:101C600020000C110E140C150E10DC01FF30DD00ED
:101C7000DE010130DF00E001E101E201E301E40106
:101C8000E5011030640265080318482E03194A2E36
:101C9000E51F532F0C110C158C1A522E0C1A522EB4
:101CA0008E1D8A2E5D0A031D772E6408DD005708FD
:101CB000640603196508031D5F2E4408DC008C1EB2
:101CC000642E0130E800652EE8010C1E6A2E0230F9
:101CD000E6006B2EE6016608E8048E1D722E0430C5
:101CE000E700732EE70167086804DC048A2E561E9D
:101CF0008A2EDE08031D8A2E8C1E812E0130DE0006
:101D00008A2E0C1E862E0230DE008A2E8E1D8A2E12
:101D10000330DE008E1A932E8E1C4A2F640EF0398B
:101D20000F38D9004A2F8E1CEF2EE30A5F084005BA
:101D3000E60060084105E70061084205E800620826
:101D40004305E90000306604670468046904FF394C
:101D5000031D4A2F5F08C0046008C1046108C20463
:101D60006208C304003085002030840064088407C2
:101D7000000A03194A2F0130550500300319560592
:101D80000319D72E58082100B40020000030850028
:101D9000203084006408840700082100B50020007A
:101DA00059082100B60080313F2088314A2F083081
:101DB000550500300319560503194A2F580821000C
:101DC000B4002000003085002030840064088407BF
:101DD00000082100B50080312D2088314A2F5F088E
:101DE0004005031DFF2E60084105031DFF2E6108FD
:101DF0004205031DFF2E6208430503194A2F5F09A0
:101E0000E6006009E7006109E8006209E900660888
:101E1000C0056708C1056808C2056908C305003028
:101E200085002030840064088407000A03194A2FC3
:101E3000043055050030031956050319342F58088E
:101E40002100B400200000308500203084006408A8
:101E5000840700082100B500200059082100B600C1
:101E600080313F2088314A2F023055050030031958
:101E7000560503194A2F58082100B40020000030ED
:101E80008500203084006408840700082100B50024
:101E900080312D20DF35E00DE10DE20DE40A03195C
:101EA000E50A8831412E90318E1A9C285D0857062C
:101EB0000319B6285C08013A88310319672F033AE1
:101EC0000319AC2F063A903103191728B6285D087C
:101ED000003A03197F2F023A0319862F063A031995
:101EE0008D2F013A0319942F023A03199B2F0E3AB2
:101EF0000319A22F023A0319A92F9031B6284708D7
:101F0000E4004808E500B4239031B6284908E4000D
:101F10004A08E500B4239031B6284B08E4004C0889
:101F2000E500B4239031B6284D08E4004E08E500E2
:101F3000B4239031B6284F08E4005008E500B423DC
:101F40009031B6285108E4005208E500B4239031DE
:101F5000B62802249031B6285D08003A0319CA2F2A
:101F6000013A0319D22F033A0319DA2F013A031960
:101F7000E22F073A0319EA2F013A0319F22F0C3A1C
:101F8000903103190128033A03190A28013A031969
:101F90001328B6280130E400E501E601E7014D23EE
:101FA0009031B6280430E400E501E601E7014D2355
:101FB0009031B6282030E400E501E601E7014D2329
:101FC0009031B628E4011030E500E601E7014D2329
:101FD0009031B628E4010130E500E601E7014D2328
:101FE0009031B628E4012030E500E601E7014D23F9
:101FF000E401C030E500E601E70188313B2490317F
:10200000B6281030E400E501E601E70188314D23F0
:102010009031B628E4010430E500E601E70188319B
:102020004D239031B62888319E239031B6285D0823
:10203000003A03193428013A03193D28033A0319D9
:102040004628013A03194F28073A03195828013A3C
:1020500003196128033A031971280C3A03198128DE
:10206000013A03198A28B6280830E400E501E601A0
:10207000E70188314D239031B6280230E400E501B4
:10208000E601E70188314D239031B6284030E40065
:10209000E501E601E70188314D239031B628803013
:1020A000E400E501E601E70188314D239031B628CF
:1020B000E4010230E500E601E70188314D2390316B
:1020C000B628E4014030E500E601E70188314D2300
:1020D000E401A030E500E601E70188313B249031BE
:1020E000B628E4018030E500E601E70188314D23A0
:1020F000E4016030E500E601E70188313B249031DE
:10210000B628E4010830E500E601E70188314D23F7
:102110009031B6285808E4008831852310305505E1
:1021200000300319560590310319B6285A08E40007
:10213000883185239031B628023063020318B6280F
:102140000030E5005C30E4000030E7004430E60099
:102150000330E8008831D223EF0890310319B62804
:102160000030E5005C30E400883144245D08D7008D
:102170000800200091142100911023001F129F15C8
:102180009F101F101E139E161E121E119D171D1349
:102190001D129C010F309B00080072302100990035
:1021A000013024008C0020308E0021009513303047
:1021B0008C002A308E0023008C018E0120008E1AA4
:1021C000E5288831EC259031EB280E156430EC00C1
:1021D000803104200E119031B92000302100BE0062
:1021E0002030BD00FF30BF001030C00080315320D0
:1021F0000030BE003030BD00FF30BF001030C000E6
:10220000532088313026903101292000C001C101BE
:10221000C201C301FF30D700D8017F30D90001309F
:10222000DA007F30DB00C401FF30C500C6010C308E
:10223000C7000230C8006C30C9001230CA006C30D0
:10224000CB001330CC001C30CD000F30CE001C3042
:10225000CF001F30D0001C30D1001730D2001C300E
:10226000D3002D30D4004708D5004808D60090315F
:02227000CD2877
:020000040001F9
:02000E00A4FF4D
:02001000FFDE11
:00000001FF
