:020000040000FA
:040000009031BE2A53
:08000800F408031D082808009C
:10001000F9300000000000000000FF3E031D092829
:1000200000000000000000000000F40B0828080099
:10003000FA30F4000420FA30F4000420FA30F4001E
:100040000420FA30F4000420F10B182808003F08BF
:1000500023009A009E1C2A28080020000E1521006B
:100060003C089038BF0027207F3021003D05BF00AD
:1000700027202100BF01272020000E1108002000AA
:100080000E1521003C089038BF0027207F3021004A
:100090003D05BF0027207F3021003E05BF002720FF
:1000A00020000E1108004508C9004608CA0048088B
:1000B000003C031866284A08850049088400C90ADC
:1000C0000319CA0A47088000C80357284508CB000F
:1000D0004608CC0008003C08C1003D08C2003E08AC
:1000E000C3003F08C4004008003C03188B284408A4
:1000F000850043088400C30A0319C40A0008C50028
:100100004208850041088400C10A0319C20A450853
:100110008000C00373283C08C5003D08C6000800E5
:100120003C082B3EC1003F0885003E088400C0010A
:100130004008840741088000C1013C082F3EC200EE
:100140000318C10AC0013D030319C00A4008C207D1
:100150003F0885003E088400013084074208800083
:10016000C2013C08323EC3000318C20AC00102307B
:100170003D020319C00AC101C035C10D4008C307C3
:100180003F0885003E088400023084074308800051
:10019000C2013C08373EC3000318C20AC001033045
:1001A0003D020319C00AC101C035C10D4008C30793
:1001B0003F0885003E088400033084074308800020
:1001C000C1013C083B3EC2000318C10AC0013D0307
:1001D0000319C00A4008C2073F0885003E08840092
:1001E00004308407420880003C08433EC0003E08BB
:1001F0008400053084074008800008003C08283E41
:10020000C1003F0885003E088400C0014008840703
:10021000410880003C082F3EC0003E0884000130A9
:10022000840740088000C2013C08343EC300031824
:10023000C20AC00103303D020319C00AC101C03522
:10024000C10D4008C3073F0885003E088400023006
:10025000840743088000C2013C08373EC3000318EE
:10026000C20AC0013D030319C00AC101C035C10D56
:100270004008C3073F0885003E0884000330840718
:1002800043088000C2013C083B3EC3000318C20A79
:10029000C00102303D020319C00AC101C035C10DC1
:1002A0004008C3073F0885003E08840004308407E7
:1002B000430880003C08403EC0003E0884000530F2
:1002C00084074008800008003C08283EC1003F0821
:1002D00085003E088400C001400884074108800072
:1002E0003C082F3EC0003E088400013084074008CF
:1002F0008000C2013C08343EC3000318C20AC0019A
:1003000003303D020319C00AC101C035C10D4008C8
:10031000C3073F0885003E08840002308407430875
:100320008000C1013C08383EC2000318C10AC00168
:100330003D030319C00A4008C2073F0885003E0874
:1003400084000330840742088000C2013C083B3E21
:10035000C3000318C20AC00102303D020319C00ADB
:10036000C101C035C10D4008C3073F0885003E08E4
:10037000840004308407430880003C08403EC000ED
:100380003E088400053084074008800008003C08CF
:10039000283EC1003F0885003E088400C001400897
:1003A0008407410880003C082F3EC0003E088400BE
:1003B0000130840740088000C2013C08323EC3007F
:1003C0000318C20AC00103303D020319C00AC1016B
:1003D000C00DC10DC00DC10DFC304005C3073F0865
:1003E00085003E0884000230840743088000C10174
:1003F0003C08383EC2000318C10AC0013D0303197E
:10040000C00A4008C2073F0885003E088400033048
:10041000840742088000C2013C083B3EC300031829
:10042000C20AC00102303D020319C00AC101C03531
:10043000C10D4008C3073F0885003E088400043012
:100440008407430880003C08403EC0003E0884000A
:1004500005308407400880000800803020005705E0
:100460000030031958050319412A21003C082D3E8C
:10047000C0003F0885003E08840001308407400822
:10048000800021003C08323EC0003F0885003E0845
:1004900084000230840740088000C2013C08393ED5
:1004A000C3000318C20AC00102303D020319C00A8A
:1004B000C101C035C10D4008C3073F0885003E0893
:1004C000840003308407430880003C083E3EC0009F
:1004D0003E0884000430840740088000C1013C08C5
:1004E000413EC4000318C10AC0013D030319C00AFC
:1004F000C301C035C30D4008C4074108C33DC20154
:1005000003303D020319C20A4208C4023F088500B5
:100510003E088400053084074408800008008030CD
:10052000200057050030031958050319A32A21009C
:100530003C082D3EC0003F0885003E088400013085
:1005400084074008800021003C08323EC0003F087C
:1005500085003E0884000230840740088000C20104
:100560003C08393EC3000318C20AC00102303D02F4
:100570000319C00AC101C035C10D4008C3073F08B7
:1005800085003E08840003308407430880003C084F
:100590003E3EC0003E0884000430840740088000CE
:1005A000C3013C08423EC4000318C30AC0013D0316
:1005B0000319C00A4008C4070318C30AC101033065
:1005C0003D020319C10AC201C135C20D4108C4026E
:1005D0003F0885003E0884000530840744088000F9
:1005E0000800803020005705003003195805031912
:1005F000052B21003C082D3EC0003F0885003E0829
:100600008400013084074008800021003C08323E0D
:10061000C0003F0885003E0884000230840740087F
:100620008000C2013C08393EC3000318C20AC00161
:1006300002303D020319C00AC101C035C10D400896
:10064000C3073F0885003E08840003308407430841
:1006500080003C083C3EC0003E0884000430840713
:1006600040088000C3013C08423EC4000318C30A8E
:10067000C0013D030319C00A4008C4070318C30A98
:10068000C10103303D020319C10AC201C135C20DC7
:100690004108C4023F0885003E08840005308407F5
:1006A00044088000080080302000570500300319FE
:1006B00058050319682B21003C082B3EC1003F0858
:1006C00085003E088400C00140088407410880007E
:1006D00021003C08303EC0003F0885003E088400F1
:1006E0000130840740088000C1013C08343EC2004C
:1006F0000318C10AC0013D030319C00A4008C2071C
:100700003F0885003E0884000230840742088000CC
:10071000C2013C08373EC3000318C20AC0010230C0
:100720003D020319C00AC101C035C10D4008C3070D
:100730003F0885003E08840003308407430880009A
:10074000C2013C083C3EC3000318C20AC00103308A
:100750003D020319C00AC101C035C10D4008C307DD
:100760003F0885003E088400043084074308800069
:10077000C1013C08403EC2000318C10AC0013D034C
:100780000319C00A4008C2073F0885003E088400DC
:10079000053084074208800008008030200057059B
:1007A0000030031958050319E22B21003C082B3EA9
:1007B000C1003F0885003E088400C001400884074E
:1007C0004108800021003C08303EC0003F08850001
:1007D0003E0884000130840740088000C1013C08C5
:1007E000343EC2000318C10AC0013D030319C00A08
:1007F0004008C2073F0885003E0884000230840795
:1008000042088000C1013C083A3EC2000318C10AF8
:10081000C00102303D020319C00A4008C2023F086D
:1008200085003E0884000330840742088000C2012E
:100830003C083C3EC3000318C20AC00103303D021D
:100840000319C00AC101C035C10D4008C3073F08E4
:1008500085003E0884000430840743088000C101FD
:100860003C08403EC2000318C10AC0013D03031901
:10087000C00A4008C2073F0885003E0884000530D2
:1008800084074208800008008030200057050030AF
:10089000031958050319592C21003C08283EC100B2
:1008A0003F0885003E088400C001400884074108D5
:1008B000800021003C082D3EC0003F0885003E0816
:1008C00084000130840740088000C2013C08343EA7
:1008D000C3000318C20AC00102303D020319C00A56
:1008E000C101C035C10D4008C3073F0885003E085F
:1008F00084000230840743088000C2013C08393E6E
:10090000C3000318C20AC00103303D020319C00A24
:10091000C101C035C10D4008C3073F0885003E082E
:1009200084000330840743088000C2013C083C3E39
:10093000C3000318C20AC0013D030319C00AC10164
:10094000C035C10D4008C3073F0885003E0884003C
:1009500004308407430880003C08403EC0003E0845
:1009600084000530840740088000080080302000A3
:1009700057050030031958050319CB2C21003C08FA
:10098000283EC1003F0885003E088400C0014008A1
:1009900084074108800021003C082D3EC0003F082C
:1009A00085003E0884000130840740088000C201B1
:1009B0003C08343EC3000318C20AC00102303D02A5
:1009C0000319C00AC101C035C10D4008C3073F0863
:1009D00085003E0884000230840743088000C2017D
:1009E0003C08393EC3000318C20AC00103303D026F
:1009F0000319C00AC101C035C10D4008C3073F0833
:100A000085003E0884000330840743088000C1014C
:100A10003C083D3EC2000318C10AC0013D03031952
:100A2000C00A4008C2073F0885003E088400043021
:100A30008407420880003C08403EC0003E08840015
:100A400005308407400880000800803020005705EA
:100A500000300319580503193A2D21003C08283E9F
:100A6000C1003F0885003E088400C001400884079B
:100A70004108800021003C082D3EC0003F08850051
:100A80003E0884000130840740088000C2013C0811
:100A9000343EC3000318C20AC00102303D020319EC
:100AA000C00AC101C035C10D4008C3073F08850019
:100AB0003E0884000230840743088000C2013C08DD
:100AC000373EC3000318C20AC00103303D020319B8
:100AD000C00AC101C00DC10DC00DC10DFC304005E3
:100AE000C3073F0885003E0884000330840743089D
:100AF0008000C1013C083D3EC2000318C10AC0018C
:100B00003D030319C00A4008C2073F0885003E089C
:100B1000840004308407420880003C08403EC00046
:100B20003E08840005308407400880000800BD01AD
:100B30003608C5003708C600FF30C7001030C800AF
:100B4000532000308500B83084003D08BD0A84077A
:100B500000308000320885003108840002308407AC
:100B60000008033A031DBD2D00308500B830840015
:100B70003D08BD0A84070230800032088500310834
:100B80008400023084070003031DD02D003085004F
:100B9000B83084003D08BD0A840705308000F32D7D
:100BA00032088500310884000008C5004508023A73
:100BB0000319E02D043A0319E02D053A031DEA2D2F
:100BC00000308500B83084003D08BD0A840703303A
:100BD0008000F32D00308500B83084003D08BD0A48
:100BE0008407043080003208850031088400000842
:100BF000BE003E08073A0319012E043A03190B2ED2
:100C0000152E00308500B83084003D08BD0A8407E9
:100C1000083080001E2E00308500B83084003D086A
:100C2000BD0A8407063080001E2E00308500B830D3
:100C300084003D08BD0A8407073080003208850023
:100C400031088400023084070008023A031D312E67
:100C500000308500B83084003D08BD0A84070930A3
:100C6000800032088500310884000008BF003F087A
:100C7000043A0319422E023A0319422E033A031989
:100C80004C2E552E00308500B83084003D08BD0A3A
:100C900084070A308000552E00308500B83084006B
:100CA0003D08BD0A84070B30800032088500310AF8
:100CB000840034080007C000C101C201C301C4019F
:100CC0003508430244080318672E0319692EC41F10
:100CD000972E00308500B830840041088407000852
:100CE0004007C60037088500360884004308C50061
:100CF000C30A0319C40A4508840746088000C10ACC
:100D00000319C20A4208803AC50080304502031D1B
:100D10008B2E3D084102031C602EB30B922E43081C
:100D2000C50008000C30C007C101C201602E430895
:100D3000C5000800B408031D0800B501B601103055
:100D4000350236080318A62E0319A82EB61F080070
:100D500032088500310835078400000A0319C22EC5
:100D60003308BC00320885003108350784000008CC
:100D7000BD002D2021003208850031083507840090
:100D8000FF308000B50A0319B60A9F2EB801B901D9
:100D90001030380239080318CF2E0319D12EB91F8D
:100DA0002D2F32088500310838078400000A031906
:100DB000292FB7080319172FBA01BB0110303A02C7
:100DC0003B080318E52E0319E72EBB1FFE2E34083F
:100DD0008500330884003A08BC003C0884070008FA
:100DE000BD00320885003108380784003D08000640
:100DF0000319FE2EBA0A0319BB0ADE2E10303A067A
:100E000003193B08031D292F3508BC003208850053
:100E10003108380784000008BD002D202100320869
:100E20008500310838078400FF308000292F3508FD
:100E3000BC00320885003108380784000008BD0076
:100E40002D20210032088500310838078400FF304A
:100E50008000B80A0319B90AC82EB60803197C2FF6
:100E6000B801B9011030380239080318392F0319B5
:100E70003B2FB91F7C2F34088500330838078400C6
:100E8000000A0319772FBA01BB0110303A023B0860
:100E900003184C2F03194E2FBB1F652F34088500F4
:100EA000330884003808BC003C0884070008BD00F3
:100EB0003208850031083A0784003D08000603190E
:100EC000652FBA0A0319BB0A452F10303A060319D9
:100ED0003B08031D772F3508BC0034088500330814
:100EE000380784000008BD003608BE003F202100FE
:100EF000B80A0319B90A322F3108BC003208BD0004
:100F00003308BE003408BF001030C0006B2008005A
:100F10003808C5003908C600FF30C7001030C800C7
:100F20005320BA01BB01BC01BD01BF011030330722
:100F3000BE000318BF0A3F083202031DA12F3E085E
:100F40003102031CA52FB21F080000303A043B04F5
:100F50003C043D04FF39031DB22FBA010830BB0029
:100F6000BC01BD013A083405031DC22F3B083505FD
:100F7000031DC22F3C083605031DC22F3D0837054F
:100F80000319D62F3208803AC00080304002031D7A
:100F9000CB2F33083102031CD62F390885003808BF
:100FA000840033083102840731088000B10A031934
:100FB000B20ABD36BC0CBB0CBA0C952F3408C50068
:100FC0003508C600FF30C7001030C8005320320873
:100FD0008500310884000008B6003608013A03197C
:100FE000F92F033A88310319F928063A0319FA2927
:100FF000FA2A32088500310A84000008B700370851
:10100000003A883103192628013A03193728033A90
:1010100003194928013A03195A28073A03196C2879
:10102000013A03197D28033A03198F28013A03195D
:10103000A1280F3A0319B228013A0319C428033A28
:101040000319D528013A0319E728FC2ABC01320804
:10105000850031088400023084070008BD00340890
:10106000BE003508BF00803153238831FC2A04308C
:10107000BC00320885003108840002308407000873
:10108000BD003408BE003508BF008031B624883169
:10109000FC2ABC0132088500310884000230840734
:1010A0000008BD003408BE003508BF0080318F2223
:1010B0008831FC2A0630BC003208850031088400E3
:1010C000023084070008BD003408BE003508BF00A8
:1010D0008031B6248831FC2ABC01320885003108F1
:1010E0008400023084070008BD003408BE003508C3
:1010F000BF00803164218831FC2A0130BC003208F5
:10110000850031088400023084070008BD003408DF
:10111000BE003508BF00803164218831FC2A0230CE
:10112000BC003208850031088400023084070008C2
:10113000BD003408BE003508BF008031642188310D
:10114000FC2ABC0132088500310884000230840783
:101150000008BD003408BE003508BF008031902073
:101160008831FC2A0430BC00320885003108840034
:10117000023084070008BD003408BE003508BF00F7
:10118000803164218831FC2ABC0132088500310895
:101190008400023084070008BD003408BE00350812
:1011A000BF008031B6248831FC2A0130BC003208EF
:1011B000850031088400023084070008BD0034082F
:1011C000BE003508BF008031B6248831FC2A0230C9
:1011D000BC00320885003108840002308407000812
:1011E000BD003408BE003508BF008031B624883108
:1011F000FC2A32088500310A84000008B80038084B
:10120000003A03192529013A03193729033A03192A
:101210004929013A03195A29073A03196C29013A55
:1012200003197D29033A03198F29013A0319A129CA
:101230000F3A0319B329013A0319C529033A0319CF
:10124000D629013A0319E829FC2A0330BC003208E8
:10125000850031088400023084070008BD0034088E
:10126000BE003508BF00803144248831FC2A043098
:10127000BC00320885003108840002308407000871
:10128000BD003408BE003508BF00803144248831D9
:10129000FC2ABC0132088500310884000230840732
:1012A0000008BD003408BE003508BF0080312D2283
:1012B0008831FC2A0630BC003208850031088400E1
:1012C000023084070008BD003408BE003508BF00A6
:1012D000803144248831FC2ABC0132088500310861
:1012E0008400023084070008BD003408BE003508C1
:1012F000BF008031FE208831FC2A0130BC0032085A
:10130000850031088400023084070008BD003408DD
:10131000BE003508BF008031FE208831FC2A023033
:10132000BC003208850031088400023084070008C0
:10133000BD003408BE003508BF008031FE20883172
:10134000FC2A0330BC0032088500310884000230DA
:1013500084070008BD003408BE003508BF00803196
:10136000FE208831FC2A0430BC0032088500310898
:101370008400023084070008BD003408BE00350830
:10138000BF008031FE208831FC2ABC013208850074
:1013900031088400023084070008BD003408BE0014
:1013A0003508BF00803144248831FC2A0130BC005C
:1013B0003208850031088400023084070008BD002F
:1013C0003408BE003508BF00803144248831FC2A2F
:1013D0000230BC00320885003108840002308407E6
:1013E0000008BD003408BE003508BF008031442429
:1013F0008831FC2A32088500310A84000008B900CF
:101400003908003A0319262A013A0319372A033A00
:101410000319492A013A03195A2A073A03196C2A6F
:10142000013A03197D2A033A03198F2A013A031955
:10143000A12A0F3A0319B32A013A0319C52A033A1C
:101440000319D62A013A0319E82AFC2ABC013208FA
:10145000850031088400023084070008BD0034088C
:10146000BE003508BF008031CD238831FC2A04300E
:10147000BC0032088500310884000230840700086F
:10148000BD003408BE003508BF00803125258831F5
:10149000FC2ABC0132088500310884000230840730
:1014A0000008BD003408BE003508BF008031F122BD
:1014B0008831FC2A0630BC003208850031088400DF
:1014C000023084070008BD003408BE003508BF00A4
:1014D000803125258831FC2ABC013208850031087D
:1014E0008400023084070008BD003408BE003508BF
:1014F000BF008031C7218831FC2A0130BC0032088E
:10150000850031088400023084070008BD003408DB
:10151000BE003508BF008031C7218831FC2A023067
:10152000BC003208850031088400023084070008BE
:10153000BD003408BE003508BF008031C7218831A6
:10154000FC2A0330BC0032088500310884000230D8
:1015500084070008BD003408BE003508BF00803194
:10156000C7218831FC2A0430BC00320885003108CC
:101570008400023084070008BD003408BE0035082E
:10158000BF008031C7218831FC2ABC0132088500A8
:1015900031088400023084070008BD003408BE0012
:1015A0003508BF00803125258831FC2A0130BC0078
:1015B0003208850031088400023084070008BD002D
:1015C0003408BE003508BF00803125258831FC2A4B
:1015D0000230BC00320885003108840002308407E4
:1015E0000008BD003408BE003508BF008031252545
:1015F0008831FC2ABC010800BA01BB0110303A0254
:101600003B080318052B0319072BBB1F1A2B3508A2
:10161000850034083A078400000A0319162B3508A0
:10162000850034083A07840033088007BA0A031992
:10163000BB0AFE2A0630BC000800230095181D2BAB
:1016400071089100720893009513151573108B1B88
:1016500073148B1355309600AA309600951415110B
:1016600073188B17731C8B13080023009518352BE8
:1016700072089100951315141308F3000800BA01BD
:10168000BB01BA190800391C472B3808BB07B90C35
:101690000310B80DBA0A412B6C08D9066D08DA069A
:1016A0000330F1005A08F2001D230430F10020003D
:1016B0005908F2001D2320000E150230F100803180
:1016C00018200E1108005708F0005808F100F20128
:1016D000F3016C087005031D792B6D087105031D5E
:1016E000792B6E087205031D792B6F08730503199A
:1016F000882B6C09F4006D09F5007408D70575088E
:10170000D8050E150A30F400803104200E110800AF
:101710006C08D7046D08D8040E150A30F400803127
:1017200004200E116430F40004200E150A30F40079
:1017300004200E110800ED01EE0180306D026E08EC
:101740000318A42B0319A62BEE1F08006C08210018
:10175000BC0020006D082100BD0080312D20ED0A65
:101760000319EE0A88319D2B0F3070052000E1002F
:101770000530F1006108F2001D2320000E15023033
:10178000F100803118200E1108007008083C031881
:10179000CB2B0830F0002000630870060319080006
:1017A0007008E3000730F1006308F2001D232000F9
:1017B0000E150130F100803118200E1108000F3095
:1017C00070052000E2000630F1006208F2001D23DF
:1017D00020000E150230F100803118200E11080093
:1017E0000130F10020005808F2001D230230F10002
:1017F00020005708F2001D2320000E150230F100D2
:10180000803118200E1108006C08D7006D08D80030
:101810000E150A30F400803104200E116430F400FB
:1018200004200E150A30F40004200E116430F40078
:1018300004200E150A30F40004200E116430F40068
:101840000420080020006C08F3006D08F4006E0806
:10185000F5006F08F6007008003C0318512C74085E
:10186000850073088400F30A0319F40A0008F100E4
:101870007608850075088400F50A0319F60A000841
:10188000F2007208710603194F2C720871020318D6
:101890004C2CFF30F70008000130F7000800F0037F
:1018A0002B2CF7010800023020005905F100F2014D
:1018B000F108031D612CF208031D612C7008F30070
:1018C00008007008003A0319872C013A03198A2C82
:1018D000033A03198D2C013A0319902C073A031986
:1018E000932C013A0319962C033A0319982C013AC8
:1018F00003199B2C0F3A03199E2C013A0319A12CB2
:10190000033A0319A42C013A0319A72CAA2C01307D
:10191000F30008000830F30008000330F30008006B
:101920000A30F30008000530F3000800F301080056
:101930000730F30008000230F30008000930F3001C
:1019400008000430F30008000B30F30008000630F4
:10195000F3000800FF30F30008000130F2003523E7
:101960007308F1002000EF01F0010230F20035238E
:1019700073082000EC00ED016C087004D7006D08BE
:101980007104D8000E150A30F400803104200E11C5
:101990006430F40004200E150A30F40004200E1107
:1019A0006430F40004200E150A30F40004200E11F7
:1019B0006430F400042008006C09F0006D09F100A7
:1019C0007008D7057108D80508006D0885006C08F7
:1019D00084008008031D2C2D00302100B20020302F
:1019E000B100200061082100B3000030200057053D
:1019F0002100B5002000580801392100B600B701C8
:101A0000B5080319B70AB608031DB701B401B70832
:101A10000319B40A80319A260030B2003030B10088
:101A2000200062082100B30000302000570521008B
:101A3000B5002000580804392100B600B701B508E8
:101A40000319B70AB608031DB701B401B708031993
:101A5000B40A9A268831A92E203057050030031980
:101A600058050319962D6C082100B10020006D085F
:101A70002100B2000C30B3000030B5007030B4006B
:101A80008031DE273C08A000A008031D5D2D20004A
:101A90006C082100B10020006D082100B200FF3069
:101AA000B3003C30B4000630B5000030B7007030F1
:101AB000B600803197250630A00040302000570541
:101AC00000300319580588310319272EEE01EF0164
:101AD00006306E026F0803186F2D0319712DEF1F6A
:101AE000922D00308500703084006E088407000A53
:101AF00003198D2D00308500703084006E08840736
:101B000000080C3E2100B1007030840020006E08F7
:101B10000A3E84072100310880002000EE0A0319E4
:101B2000EF0A682D10302100A000272ED81EB22DFC
:101B30006D0885006C0A840000082100B100B20124
:101B40003030B300FF30B4000F30B500B601B7013C
:101B50000030B9007030B800803188271030A00004
:101B60008831272E581FF62D6D0885006C088400DB
:101B70000008023A0319C42D6D0885006C08840022
:101B80000008063A031DDC2D6D0885006C0A8400F0
:101B900000082100B100B2013030B3005A30B40067
:101BA0000B30B500B601B7010030B9007030B80095
:101BB000803188278831F22D6D0885006C0A8400F9
:101BC00000082100B100B2013030B300D530B400BC
:101BD0000A30B500B601B7010030B9007030B80066
:101BE000803188271030A0008831272ED81F122E70
:101BF0006D0885006C0A840000082100B100B20164
:101C00003030B3009430B4000A30B500B601B701EB
:101C10000030B9007030B800803188271030A00043
:101C20008831272E6C082100B10020006D082100AA
:101C3000B200FF30B3002430B4001030B5000030E3
:101C4000B7007030B600803197251030A00000300A
:101C50002100C600A130C500FF30C7001030C80009
:101C6000803153200030BD00A130BC000030BF00E7
:101C70007030BE002008C0006B200030B200203061
:101C8000B1000030B400A130B30020006108210091
:101C9000B500B6010030200057052100B800200033
:101CA000580802392100B900BA01B8080319BA0A64
:101CB000B908031DBA01B701BA080319B70AC62645
:101CC00010302000570500300319580588310319DA
:101CD000A92E6C082100B10020006D082100B2007F
:101CE0000130B300200063082100B8000C30B900B7
:101CF0003F233B08B4001030B5000030B700A130DE
:101D0000B600803197250030B2003030B10000308D
:101D1000B400A130B300200062082100B50020000B
:101D20005E082100B6000030200057052100B800F1
:101D30002000580808392100B900BA01B808031971
:101D4000BA0AB908031DBA01B701BA080319B70ADC
:101D5000C62620006D0885006C0884000008C400B9
:101D6000840A0008C500840A0008C6000800200094
:101D7000E401E5010530640265080318C12E03196A
:101D8000C32EE51F08000E15C830F4008031042072
:101D9000C830F40004200E11C830F4000420E40A16
:101DA0000319E50A8831BA2E20000C110E140C1507
:101DB0000E10FF30DB00E401FF30E500E6010130EA
:101DC000E700E801E901EA01EB01EC01ED01103067
:101DD0006C026D080318EE2E0319F12E9031ED1FE1
:101DE0005B2801305905F000F101F201F0080319F8
:101DF000F20AF108031DF201F2088831031D082FD1
:101E00006C080F3CEE006D09EF000318EF0A0C2F71
:101E10006C08EE006D08EF000C110C150130F40099
:101E20008031042088318C1A192F0C1A192F8E1D1D
:101E3000562F5B0A031D432F6C08DB006C08F00073
:101E400053247308E5005C086C0603196D08031D34
:101E50002B2F4408E4008C1E302F0130F000312F6E
:101E6000F0010C1E362F0230F100372FF1017108FE
:101E7000F0048E1D3E2F0430F1003F2FF101710858
:101E80007004E404562F581E562FE608031D562FE3
:101E90008C1E4D2F0130E600562F0C1E522F0230A3
:101EA000E600562F8E1D562F0330E6008E1A952F12
:101EB0008E1C802F5F08013A0319652F033A03191E
:101EC0006C2F013A0319732F7A2F6E08F000B42398
:101ED000DF010E118831802F6E08F000DF23DF0153
:101EE0000E118831802F6E08F000C523DF010E111E
:101EF0008831802F6E0EF039F00070080F38DD0049
:101F0000DF08903103195628E00A10306005F00010
:101F1000F101F0080319F10AF201F1080319F20ABC
:101F200072180E15721C0E115628DF010E118E1C30
:101F3000F62FEB0A67084005F00068084105F1003C
:101F400069084205F2006A084305F3000030700496
:101F5000710472047304FF399031031D522867081D
:101F6000C0046808C1046908C2046A08C3040030D8
:101F70008500203084006E088407000A0319522867
:101F80000130570500300319580588310319DD2F3A
:101F900061082100BC000030850020308400200052
:101FA0006E08840700082100BD0020005D082100A4
:101FB000BE0080313F209031522808305705003054
:101FC0000319580590310319522861082100BC00FB
:101FD000003085002030840020006E08840700084F
:101FE0002100BD0080312D20903152286708400526
:101FF0009031031D072868084105031D072869085B
:102000004205031D07286A0843050319522867097A
:10201000F0006809F1006909F2006A09F30070082C
:10202000C0057108C1057208C2057308C3050030F8
:102030008500203084006E088407000A03195228A6
:102040000430570500300319580503193C2861086E
:102050002100BC00003085002030840020006E0884
:10206000840700082100BD0020005D082100BE009B
:1020700080313F209031522802305705003003193B
:1020800058050319522861082100BC000030850062
:102090002030840020006E08840700082100BD0065
:1020A00080312D20E735E80DE90DEA0DEC0A031922
:1020B000ED0A8831E72E8E1AD2295C085B060319D7
:1020C000EC296408013A03196C28033A0319BD2866
:1020D000063A03193D29EC295B08003A03198628C2
:1020E000023A03198E28063A03199628013A031971
:1020F0009E28023A0319A6280E3A0319AE28033A7D
:102100000319B628013A0319B928EC294708EC004D
:102110004808ED00883104249031EC294908EC008E
:102120004A08ED00883104249031EC294B08EC007A
:102130004C08ED00883104249031EC294D08EC0066
:102140004E08ED00883104249031EC294F08EC0052
:102150005008ED00883104249031EC295108EC003E
:102160005208ED00883104249031EC290330DF005F
:10217000EC298831AD249031EC295B08003A031931
:10218000E028013A0319E928033A0319F228013A31
:102190000319FB28073A03190429013A03190D29E9
:1021A000023A03191D290F3A03192629013A031986
:1021B0002F29033A03193229013A03193929EC2945
:1021C0000130EC00ED01EE01EF0188316323903125
:1021D000EC290430EC00ED01EE01EF0188316323BE
:1021E0009031EC292030EC00ED01EE01EF01883157
:1021F00063239031EC29EC011030ED00EE01EF018A
:10220000883163239031EC29EC010130ED00EE01BF
:10221000EF01883163239031EC29EC012030ED008F
:10222000EE01EF0188316323EC01C030ED00EE01D7
:10223000EF018831DC249031EC291030EC00ED0105
:10224000EE01EF01883163239031EC29EC01043079
:10225000ED00EE01EF01883163239031EC2901306C
:10226000DF00EC290130EC00ED0188314C23903186
:10227000EC298831F0239031EC295B08003A0319EE
:102280006029013A03196929033A03197229013AAD
:1022900003197B29073A03198429013A03198D2967
:1022A000033A03199D290E3A0319AD29013A03197E
:1022B000B629033A0319B929013A0319C029EC29AF
:1022C0000830EC00ED01EE01EF018831632390311D
:1022D000EC290230EC00ED01EE01EF0188316323BF
:1022E0009031EC294030EC00ED01EE01EF01883136
:1022F00063239031EC298030EC00ED01EE01EF0119
:10230000883163239031EC29EC010230ED00EE01BD
:10231000EF01883163239031EC29EC014030ED006E
:10232000EE01EF0188316323EC01A030ED00EE01F6
:10233000EF018831DC249031EC29EC018030ED0094
:10234000EE01EF0188316323EC016030ED00EE0116
:10235000EF018831DC249031EC29EC010830ED00EC
:10236000EE01EF01883163239031EC290230DF0068
:10237000EC290230EC00ED0188314C239031EC293E
:102380006108EC0088319B23103057050030031999
:10239000580590310319EC296208EC0088319B2321
:1023A0009031EC2902306B020318EC290030ED006B
:1023B0006430EC000030EF004430EE000330F000F9
:1023C00088312224F70890310319EC290030ED0000
:1023D0006430EC008831E5245B08DC000800F20181
:1023E0008831352373089A3A90310319322A200034
:1023F0004708D7004808D8005508D9005608DA0021
:102400000130F1005808F20088311D230230F1003C
:1024100020005708F2001D230330F10020005A0865
:10242000F2001D230430F10020005908F2001D23A2
:102430000530F100F2011D230630F1000130F200F9
:102440001D230730F1000330F2001D23F1019A3003
:10245000F2001D2320000E150430F10080311820F9
:102460000E1108000130F200883135237308200076
:10247000E900E701E8010230F2003523730820008B
:10248000E400E50164086804D70065086904D80021
:102490000330F200352373082000E900E701E8016A
:1024A0000430F200352373082000E400E5016408DD
:1024B0006804D90065086904DA000530F2003523A4
:1024C00073082000E1000630F20035237308200075
:1024D000E2000730F200352373082000E300080013
:1024E000200091142100911023001F129F159F10AE
:1024F0001F101E139E161E121E119D171D131D1256
:102500009C010F309B0008007230210099000130BF
:1025100024008C0020308E002100951330308C0078
:102520002A308E0023008C018E0120008E1A9C2AF6
:102530008831B7269031A22A0E156430F40080311C
:1025400004200E119031702200302100C60020308E
:10255000C500FF30C7001030C80080315320003064
:10256000C6003030C500FF30C7001030C80053200F
:102570009031EF218831D4269031BA2A2000C00151
:10258000C101C201C301FF30DB00FF30DC007F303E
:10259000DD007F30DE00DF01E001C401FF30C50057
:1025A000C6010C30C7000230C8006C30C9001230C0
:1025B000CA006C30CB001330CC001C30CD000F3083
:1025C000CE001C30CF001F30D0001C30D10017309F
:1025D000D2001C30D3002D30D400D501D6014708DD
:1025E000D7004808D8005508D9005608DA00E1019C
:0C25F0000130E2000330E3009031842A47
:020000040001F9
:02000E00A4FF4D
:02001000FFDE11
:00000001FF
