:020000040000FA
:040000009031F4291E
:08000800F108031D082808009F
:10001000F9300000000000000000FF3E031D092829
:1000200000000000000000000000F10B082808009C
:10003000FA30F1000420FA30F1000420FA30F10027
:100040000420FA30F1000420EB0B182808003C08CB
:1000500023009A009E1C2A28080020000E1521006B
:1000600039089038BC0027207F3021003A05BC00B9
:1000700027202100BC01272020000E1108002000AD
:100080000E15210039089038BC0027207F30210050
:100090003A05BC0027207F3021003B05BC0027200B
:1000A00020000E1108004208C6004308C70045089A
:1000B000003C031866284708850046088400C60AE5
:1000C0000319C70A44088000C50357284208C8001E
:1000D0004308C90008003908BE003A08BF003B08C1
:1000E000C0003C08C1003D08003C03188B284108B3
:1000F000850040088400C00A0319C10A0008C20034
:100100003F0885003E088400BE0A0319BF0A420862
:100110008000BD0373283908C2003A08C3000800F4
:1001200039082B3EBE003C0885003B088400BD0119
:100130003D0884073E088000BE0139082F3EBF00FD
:100140000318BE0ABD013A030319BD0A3D08BF07E3
:100150003C0885003B088400013084073F0880008C
:10016000BF013908323EC0000318BF0ABD0102308A
:100170003A020319BD0ABE01BD35BE0D3D08C007D8
:100180003C0885003B08840002308407400880005A
:10019000BF013908373EC0000318BF0ABD01033054
:1001A0003A020319BD0ABE01BD35BE0D3D08C007A8
:1001B0003C0885003B088400033084074008800029
:1001C000BE0139083B3EBF000318BE0ABD013A0319
:1001D0000319BD0A3D08BF073C0885003B088400A1
:1001E000043084073F0880003908433EBD003B08C7
:1001F0008400053084073D08800008003908283E47
:10020000BE003C0885003B088400BD013D08840712
:100210003E08800039082F3EBD003B0884000130B5
:1002200084073D088000BF013908343EC000031830
:10023000BF0ABD0103303A020319BD0ABE01BD3534
:10024000BE0D3D08C0073C0885003B088400023015
:10025000840740088000BF013908373EC0000318FA
:10026000BF0ABD013A030319BD0ABE01BD35BE0D6B
:100270003D08C0073C0885003B0884000330840724
:1002800040088000BF0139083B3EC0000318BF0A88
:10029000BD0102303A020319BD0ABE01BD35BE0DD3
:1002A0003D08C0073C0885003B08840004308407F3
:1002B000400880003908403EBD003B0884000530FE
:1002C00084073D08800008003908283EBE003C082D
:1002D00085003B088400BD013D0884073E0880007E
:1002E00039082F3EBD003B088400013084073D08DB
:1002F0008000BF013908343EC0000318BF0ABD01A9
:1003000003303A020319BD0ABE01BD35BE0D3D08DA
:10031000C0073C0885003B08840002308407400881
:100320008000BE013908383EBF000318BE0ABD0177
:100330003A030319BD0A3D08BF073C0885003B0886
:100340008400033084073F088000BF0139083B3E2A
:10035000C0000318BF0ABD0102303A020319BD0AEA
:10036000BE01BD35BE0D3D08C0073C0885003B08F9
:10037000840004308407400880003908403EBD00F6
:100380003B088400053084073D08800008003908D8
:10039000283EBE003C0885003B088400BD013D08A6
:1003A00084073E08800039082F3EBD003B088400CA
:1003B000013084073D088000BF013908323EC0008B
:1003C0000318BF0ABD0103303A020319BD0ABE017A
:1003D000BD0DBE0DBD0DBE0DFC303D05C0073C087A
:1003E00085003B0884000230840740088000BE017D
:1003F0003908383EBF000318BE0ABD013A0303198D
:10040000BD0A3D08BF073C0885003B088400033057
:1004100084073F088000BF0139083B3EC000031835
:10042000BF0ABD0102303A020319BD0ABE01BD3543
:10043000BE0D3D08C0073C0885003B088400043021
:100440008407400880003908403EBD003B08840016
:10045000053084073D0880000800803020005705E3
:100460000030031958050319412A210039082D3E8F
:10047000BD003C0885003B088400013084073D082E
:10048000800021003908323EBD003C0885003B0851
:100490008400023084073D088000BF013908393EDE
:1004A000C0000318BF0ABD0102303A020319BD0A99
:1004B000BE01BD35BE0D3D08C0073C0885003B08A8
:1004C0008400033084074008800039083E3EBD00A8
:1004D0003B088400043084073D088000BE013908D1
:1004E000413EC1000318BE0ABD013A030319BD0A0B
:1004F000C001BD35C00D3D08C1073E08C03DBF016C
:1005000003303A020319BF0A3F08C1023C088500C4
:100510003B088400053084074108800008008030D3
:10052000200057050030031958050319A32A21009C
:1005300039082D3EBD003C0885003B088400013091
:1005400084073D08800021003908323EBD003C0888
:1005500085003B088400023084073D088000BF010D
:100560003908393EC0000318BF0ABD0102303A0203
:100570000319BD0ABE01BD35BE0D3D08C0073C08CC
:1005800085003B0884000330840740088000390858
:100590003E3EBD003B088400043084073D088000D7
:1005A000C0013908423EC1000318C00ABD013A0328
:1005B0000319BD0A3D08C1070318C00ABE01033074
:1005C0003A020319BE0ABF01BE35BF0D3E08C10283
:1005D0003C0885003B088400053084074108800002
:1005E0000800803020005705003003195805031912
:1005F000052B210039082D3EBD003C0885003B0835
:100600008400013084073D08800021003908323E13
:10061000BD003C0885003B088400023084073D088B
:100620008000BF013908393EC0000318BF0ABD0170
:1006300002303A020319BD0ABE01BD35BE0D3D08A8
:10064000C0073C0885003B0884000330840740084D
:10065000800039083C3EBD003B088400043084071C
:100660003D088000C0013908423EC1000318C00A9D
:10067000BD013A030319BD0A3D08C1070318C00AAA
:10068000BE0103303A020319BE0ABF01BE35BF0DD9
:100690003E08C1023C0885003B0884000530840701
:1006A0004108800008008030200057050030031901
:1006B00058050319682B210039082B3EBE003C0861
:1006C00085003B088400BD013D0884073E0880008A
:1006D00021003908303EBD003C0885003B088400FD
:1006E000013084073D088000BE013908343EBF0058
:1006F0000318BE0ABD013A030319BD0A3D08BF072E
:100700003C0885003B088400023084073F088000D5
:10071000BF013908373EC0000318BF0ABD010230CF
:100720003A020319BD0ABE01BD35BE0D3D08C00722
:100730003C0885003B0884000330840740088000A3
:10074000BF0139083C3EC0000318BF0ABD01033099
:100750003A020319BD0ABE01BD35BE0D3D08C007F2
:100760003C0885003B088400043084074008800072
:10077000BE013908403EBF000318BE0ABD013A035E
:100780000319BD0A3D08BF073C0885003B088400EB
:10079000053084073F08800008008030200057059E
:1007A0000030031958050319E22B210039082B3EAC
:1007B000BE003C0885003B088400BD013D0884075D
:1007C0003E08800021003908303EBD003C0885000D
:1007D0003B088400013084073D088000BE013908D1
:1007E000343EBF000318BE0ABD013A030319BD0A17
:1007F0003D08BF073C0885003B08840002308407A1
:100800003F088000BE0139083A3EBF000318BE0A07
:10081000BD0102303A020319BD0A3D08BF023C087F
:1008200085003B088400033084073F088000BF0137
:1008300039083C3EC0000318BF0ABD0103303A022C
:100840000319BD0ABE01BD35BE0D3D08C0073C08F9
:1008500085003B0884000430840740088000BE0106
:100860003908403EBF000318BE0ABD013A03031910
:10087000BD0A3D08BF073C0885003B0884000530E1
:1008800084073F08800008008030200057050030B2
:10089000031958050319592C21003908283EBE00B8
:1008A0003C0885003B088400BD013D0884073E08E4
:1008B0008000210039082D3EBD003C0885003B0822
:1008C0008400013084073D088000BF013908343EB0
:1008D000C0000318BF0ABD0102303A020319BD0A65
:1008E000BE01BD35BE0D3D08C0073C0885003B0874
:1008F00084000230840740088000BF013908393E77
:10090000C0000318BF0ABD0103303A020319BD0A33
:10091000BE01BD35BE0D3D08C0073C0885003B0843
:1009200084000330840740088000BF0139083C3E42
:10093000C0000318BF0ABD013A030319BD0ABE0176
:10094000BD35BE0D3D08C0073C0885003B0884004E
:1009500004308407400880003908403EBD003B0851
:100960008400053084073D088000080080302000A6
:1009700057050030031958050319CB2C21003908FD
:10098000283EBE003C0885003B088400BD013D08B0
:1009900084073E088000210039082D3EBD003C0838
:1009A00085003B088400013084073D088000BF01BA
:1009B0003908343EC0000318BF0ABD0102303A02B4
:1009C0000319BD0ABE01BD35BE0D3D08C0073C0878
:1009D00085003B0884000230840740088000BF0186
:1009E0003908393EC0000318BF0ABD0103303A027E
:1009F0000319BD0ABE01BD35BE0D3D08C0073C0848
:100A000085003B0884000330840740088000BE0155
:100A100039083D3EBF000318BE0ABD013A03031961
:100A2000BD0A3D08BF073C0885003B088400043030
:100A300084073F0880003908403EBD003B08840021
:100A4000053084073D0880000800803020005705ED
:100A500000300319580503193A2D21003908283EA2
:100A6000BE003C0885003B088400BD013D088407AA
:100A70003E088000210039082D3EBD003C0885005D
:100A80003B088400013084073D088000BF0139081D
:100A9000343EC0000318BF0ABD0102303A020319F8
:100AA000BD0ABE01BD35BE0D3D08C0073C0885002E
:100AB0003B0884000230840740088000BF013908E9
:100AC000373EC0000318BF0ABD0103303A020319C4
:100AD000BD0ABE01BD0DBE0DBD0DBE0DFC303D05F8
:100AE000C0073C0885003B088400033084074008A9
:100AF0008000BE0139083D3EBF000318BE0ABD019B
:100B00003A030319BD0A3D08BF073C0885003B08AE
:100B10008400043084073F0880003908403EBD004F
:100B20003B088400053084073D0880000800BA01B6
:100B30003308C2003408C300FF30C4001030C500C1
:100B4000532000308500B53084003A08BA0A840783
:100B5000003080007F0885007E0884000230840712
:100B60000008033A031DBD2D00308500B530840018
:100B70003A08BA0A8407023080007F0885007E08A0
:100B80008400023084070003031DD02D003085004F
:100B9000B53084003A08BA0A840705308000F32D86
:100BA0007F0885007E0884000008C2004208023ADF
:100BB0000319E02D043A0319E02D053A031DEA2D2F
:100BC00000308500B53084003A08BA0A8407033043
:100BD0008000F32D00308500B53084003A08BA0A51
:100BE0008407043080007F0885007E0884000008A8
:100BF000BB003B08073A0319012E043A03190B2ED8
:100C0000152E00308500B53084003A08BA0A8407F2
:100C1000083080001E2E00308500B53084003A0870
:100C2000BA0A8407063080001E2E00308500B530D9
:100C300084003A08BA0A8407073080007F088500DC
:100C40007E088400023084070008023A031D312E1A
:100C500000308500B53084003A08BA0A84070930AC
:100C600080007F0885007E0884000008BC003C08E6
:100C7000043A0319422E023A0319422E033A031989
:100C80004C2E552E00308500B53084003A08BA0A43
:100C900084070A308000552E00308500B53084006E
:100CA0003A08BA0A84070B3080007F0885007E0A64
:100CB000840031080007BD00BE01BF01C001C101B1
:100CC0003208400241080318672E0319692EC11F1C
:100CD000972E00308500B53084003E088407000858
:100CE0003D07C30034088500330884004008C20073
:100CF000C00A0319C10A4208840743088000BE0ADB
:100D00000319BF0A3F08803AC20080304202031D27
:100D10008B2E3A083E02031C602EB00B922E400828
:100D2000C20008000C30BD07BE01BF01602E4008A4
:100D3000C2000800B108031D0800B201B301103061
:100D4000320233080318A62E0319A82EB31F080079
:100D50007F0885007E0832078400000A0319C22E2E
:100D60003008B9007F0885007E083207840000083B
:100D7000BA002D207F0885007E08210032078400FC
:100D8000FF308000B20A0319B30A9F2EB501B601E5
:100D90001030350236080318CF2E0319D12EB61F96
:100DA0002D2F7F0885007E0835078400000A03196F
:100DB000292FB4080319172FB701B80110303702D3
:100DC00038080318E52E0319E72EB81FFE2E310848
:100DD0008500300884003708B90039088407000806
:100DE000BA007F0885007E08350784003A080006AF
:100DF0000319FE2EB70A0319B80ADE2E1030370683
:100E000003193808031D292F3208B9007F0885000F
:100E10007E08350784000008BA002D207F08850071
:100E20007E08210035078400FF308000292F32081A
:100E3000B9007F0885007E08350784000008BA00E5
:100E40002D207F0885007E08210035078400FF30B3
:100E50008000B50A0319B60AC82EB30803197C2FFF
:100E6000B501B6011030350236080318392F0319C1
:100E70003B2FB61F7C2F31088500300835078400D2
:100E8000000A0319772FB701B8011030370238086C
:100E900003184C2F03194E2FB81F652F31088500FA
:100EA000300884003508B900390884070008BA0002
:100EB0007F0885007E08370784003A08000603197A
:100EC000652FB70A0319B80A452F103037060319E2
:100ED0003808031D772F3208B90031088500300823
:100EE000350784000008BA003308BB003F2021000A
:100EF000B50A0319B60A322F7E08B9007F08BA0076
:100F00003008BB003108BC001030BD006B20080069
:100F10003508C2003608C300FF30C4001030C500D9
:100F20005320B701B801B901BA01BC011030300734
:100F3000BB000318BC0A3C087F02031DA12F3B081D
:100F40007E02031CA52FFF1F080000303704380461
:100F500039043A04FF39031DB22FB7010830B80035
:100F6000B901BA0137083105031DC22F380832050F
:100F7000031DC22F39083305031DC22F3A0834055B
:100F80000319D62F7F08803ABD0080303D02031D33
:100F9000CB2F30087E02031CD62F3608850035087B
:100FA000840030087E0284077E088000FE0A031950
:100FB000FF0ABA36B90CB80CB70C952F3108C2002D
:100FC0003208C300FF30C4001030C50053207F0832
:100FD00085007E0884000008B3003308013A031935
:100FE000F92F033A88310319F928063A0319FA2927
:100FF000FA2A7F0885007E0A84000008B4003408BD
:10100000003A883103192628013A03193728033A90
:1010100003194928013A03195A28073A03196C2879
:10102000013A03197D28033A03198F28013A03195D
:10103000A1280F3A0319B228013A0319C428033A28
:101040000319D528013A0319E728FC2AB9017F08BA
:1010500085007E088400023084070008BA00310849
:10106000BB003208BC00803153238831FC2A043095
:10107000B9007F0885007E088400023084070008DC
:10108000BA003108BB003208BC008031B624883178
:10109000FC2AB9017F0885007E088400023084079D
:1010A0000008BA003108BB003208BC0080318F2232
:1010B0008831FC2A0630B9007F0885007E0884004C
:1010C000023084070008BA003108BB003208BC00B7
:1010D0008031B6248831FC2AB9017F0885007E085A
:1010E0008400023084070008BA003108BB003208CF
:1010F000BC00803164218831FC2A0130B9007F08AE
:1011000085007E088400023084070008BA00310898
:10111000BB003208BC00803164218831FC2A0230D7
:10112000B9007F0885007E0884000230840700082B
:10113000BA003108BB003208BC008031642188311C
:10114000FC2AB9017F0885007E08840002308407EC
:101150000008BA003108BB003208BC008031902082
:101160008831FC2A0430B9007F0885007E0884009D
:10117000023084070008BA003108BB003208BC0006
:10118000803164218831FC2AB9017F0885007E08FE
:101190008400023084070008BA003108BB0032081E
:1011A000BC008031B6248831FC2A0130B9007F08A8
:1011B00085007E088400023084070008BA003108E8
:1011C000BB003208BC008031B6248831FC2A0230D2
:1011D000B9007F0885007E0884000230840700087B
:1011E000BA003108BB003208BC008031B624883117
:1011F000FC2A7F0885007E0A84000008B5003508B7
:10120000003A03192529013A03193729033A03192A
:101210004929013A03195A29073A03196C29013A55
:1012200003197D29033A03198F29013A0319A129CA
:101230000F3A0319B329013A0319C529033A0319CF
:10124000D629013A0319E829FC2A0330B9007F089E
:1012500085007E088400023084070008BA00310847
:10126000BB003208BC00803144248831FC2A0430A1
:10127000B9007F0885007E088400023084070008DA
:10128000BA003108BB003208BC00803144248831E8
:10129000FC2AB9017F0885007E088400023084079B
:1012A0000008BA003108BB003208BC0080312D2292
:1012B0008831FC2A0630B9007F0885007E0884004A
:1012C000023084070008BA003108BB003208BC00B5
:1012D000803144248831FC2AB9017F0885007E08CA
:1012E0008400023084070008BA003108BB003208CD
:1012F000BC008031FE208831FC2A0130B9007F0813
:1013000085007E088400023084070008BA00310896
:10131000BB003208BC008031FE208831FC2A02303C
:10132000B9007F0885007E08840002308407000829
:10133000BA003108BB003208BC008031FE20883181
:10134000FC2A0330B9007F0885007E088400023043
:1013500084070008BA003108BB003208BC008031A5
:10136000FE208831FC2A0430B9007F0885007E0801
:101370008400023084070008BA003108BB0032083C
:10138000BC008031FE208831FC2AB9017F0885002D
:101390007E088400023084070008BA003108BB00D0
:1013A0003208BC00803144248831FC2A0130B90065
:1013B0007F0885007E088400023084070008BA0098
:1013C0003108BB003208BC00803144248831FC2A3B
:1013D0000230B9007F0885007E088400023084074F
:1013E0000008BA003108BB003208BC008031442438
:1013F0008831FC2A7F0885007E0A84000008B60038
:101400003608003A0319262A013A0319372A033A03
:101410000319492A013A03195A2A073A03196C2A6F
:10142000013A03197D2A033A03198F2A013A031955
:10143000A12A0F3A0319B32A013A0319C52A033A1C
:101440000319D62A013A0319E82AFC2AB9017F08B0
:1014500085007E088400023084070008BA00310845
:10146000BB003208BC008031CD238831FC2A043017
:10147000B9007F0885007E088400023084070008D8
:10148000BA003108BB003208BC0080312525883104
:10149000FC2AB9017F0885007E0884000230840799
:1014A0000008BA003108BB003208BC008031F122CC
:1014B0008831FC2A0630B9007F0885007E08840048
:1014C000023084070008BA003108BB003208BC00B3
:1014D000803125258831FC2AB9017F0885007E08E6
:1014E0008400023084070008BA003108BB003208CB
:1014F000BC008031C7218831FC2A0130B9007F0847
:1015000085007E088400023084070008BA00310894
:10151000BB003208BC008031C7218831FC2A023070
:10152000B9007F0885007E08840002308407000827
:10153000BA003108BB003208BC008031C7218831B5
:10154000FC2A0330B9007F0885007E088400023041
:1015500084070008BA003108BB003208BC008031A3
:10156000C7218831FC2A0430B9007F0885007E0835
:101570008400023084070008BA003108BB0032083A
:10158000BC008031C7218831FC2AB9017F08850061
:101590007E088400023084070008BA003108BB00CE
:1015A0003208BC00803125258831FC2A0130B90081
:1015B0007F0885007E088400023084070008BA0096
:1015C0003108BB003208BC00803125258831FC2A57
:1015D0000230B9007F0885007E088400023084074D
:1015E0000008BA003108BB003208BC008031252554
:1015F0008831FC2AB9010800B701B8011030370260
:1016000038080318052B0319072BB81F1A2B3208AB
:101610008500310837078400000A0319162B3208A9
:10162000850031083707840030088007B70A03199E
:10163000B80AFE2A0630B9000800230095181D2BB1
:1016400020006B082300910020006C082300930009
:101650009513151520006D108B1B6D148B135530D1
:1016600023009600AA3096009514151120006D18DD
:101670008B176D1C8B130800230095183C2B200042
:101680006F0823009100951315141308F00008004B
:101690006908D9066A08DA060330EB005A08EC003C
:1016A0001D230430EB005908EC001D230E150230F9
:1016B000EB00803118200E1108005708ED00580883
:1016C000EE00EF01F00169086D05031D732B6A0838
:1016D0006E05031D732B6B086F05031D732B6C08C0
:1016E00070050319822B6909F1006A09F20071087B
:1016F000D7057208D8050E150A30F1008031042094
:101700000E1108006908D7046A08D8040E150A30BB
:10171000F100803104200E116430F10004200E1518
:101720000A30F10004200E110800EA01EB018030BC
:101730006A026B0803189E2B0319A02BEB1F0800ED
:1017400069082100B90020006A082100BA00803130
:101750002D20EA0A0319EB0A8831972B013020006B
:10176000EB005808EC001D230230EB005708EC009A
:101770001D230E150230EB00803118200E110800D9
:101780006908D7006A08D8000E150A30F1008031C8
:1017900004200E116430F10004200E150A30F1000F
:1017A00004200E116430F10004200E150A30F100FF
:1017B00004200E116430F100042008006908F000D4
:1017C0006A08F1006B08F2006C08F3006D08003C39
:1017D00003180C2C7108850070088400F00A0319A6
:1017E000F10A0008EE007308850072088400F20A0E
:1017F0000319F30A0008EF006F086E0603190A2C9C
:101800006F086E020318072CFF30F4000800013047
:10181000F4000800ED03E62BF4010800023059053E
:10182000EE00EF01EE08031D1B2CEF08031D1B2C1F
:101830006D08F00008006D08003A0319412C013AC8
:101840000319442C033A0319472C013A03194A2C73
:10185000073A03194D2C013A0319502C033A031986
:10186000522C013A0319552C0F3A0319582C013AFE
:1018700003195B2C033A03195E2C013A0319612CFE
:10188000642C0130F00008000830F000080003303C
:10189000F00008000A30F00008000530F0000800F1
:1018A000F00108000730F00008000230F0000800E6
:1018B0000930F00008000430F00008000B30F000A0
:1018C00008000630F0000800FF30F000080001308A
:1018D0002000EF003C2370082000EE00EC01ED0139
:1018E0000230EF003C2370082000E900EA0169089B
:1018F0006D04D7006A086E04D8000E150A30F10096
:10190000803104200E116430F10004200E150A30DD
:10191000F10004200E116430F10004200E150A308D
:10192000F10004200E116430F10004200800690960
:10193000ED006A09EE006D08D7056E08D8050800AD
:101940006A088500690884008008031DE52C0030C2
:10195000FF002030FE005D082100B00000302000B4
:1019600057052100B2002000580801392100B300BA
:10197000B401B2080319B40AB308031DB401B101DC
:10198000B4080319B10A80319A260030FF003030C4
:10199000FE0020005F082100B00000302000570545
:1019A0002100B2002000580804392100B300B4011E
:1019B000B2080319B40AB308031DB401B101B40895
:1019C0000319B10A9A2688314E2E2030570500306F
:1019D000031958050319462D6908FE006A08FF001F
:1019E0000C302100B0000030B2006D30B100803109
:1019F000DE273908FD00FD08031D122D20006908AF
:101A0000FE006A08FF00FF302100B0003C30B1004A
:101A10000630B2000030B4006D30B300803197253D
:101A20000630FD00403020005705003003195805EE
:101A300088310319D52DEB01EC0106306B026C08DF
:101A40000318242D0319262DEC1F432D003085008B
:101A50006D3084006B088407000A03193F2D0030A5
:101A600085006D3084006B08840700080C3EFE0082
:101A70006D3084006B080A3E84077E088000EB0A04
:101A80000319EC0A1D2D1030FD00D52DD81E622D36
:101A90006A088500690A84000008FE00FF013030F2
:101AA0002100B000FF30B1000F30B200B301B4012B
:101AB0000030B6006D30B500803188271030FD0051
:101AC0008831D52D581FA62D6A0885006908840025
:101AD0000008023A0319742D6A0885006908840019
:101AE0000008063A031D8C2D6A088500690A8400E7
:101AF0000008FE00FF0130302100B0005A30B10074
:101B00000B30B200B301B4010030B6006D30B50047
:101B1000803188278831A22D6A088500690A8400EF
:101B20000008FE00FF0130302100B000D530B100C8
:101B30000A30B200B301B4010030B6006D30B50018
:101B4000803188271030FD008831D52DD81FC22D57
:101B50006A088500690A84000008FE00FF01303031
:101B60002100B0009430B1000A30B200B301B401DA
:101B70000030B6006D30B500803188271030FD0090
:101B80008831D52D6908FE006A08FF00FF3021006A
:101B9000B0002430B1001030B2000030B4006D301D
:101BA000B300803197251030FD0000302100C300C4
:101BB000A030C200FF30C4001030C5008031532077
:101BC0000030BA00A030B9000030BC006D30BB005E
:101BD0007D08BD006B200030FF002030FE0000308B
:101BE000B100A030B00020005D082100B200B301B8
:101BF0000030200057052100B500200058080239A8
:101C00002100B600B701B5080319B70AB608031DCD
:101C1000B701B401B7080319B40AC6261030200072
:101C20005705003003195805883103194E2E6908ED
:101C3000FE006A08FF0001302100B0002430B1002E
:101C40001030B2000030B400A030B30080319725CE
:101C50000030FF003030FE000030B100A030B00096
:101C600020005F082100B200200060082100B300BE
:101C70000030200057052100B50020005808083921
:101C80002100B600B701B5080319B70AB608031D4D
:101C9000B701B401B7080319B40AC62620006A08C0
:101CA0008500690884000008C400840A0008C50093
:101CB000840A0008C60008002000E101E2010430A7
:101CC000610262080318662E0319682EE21F0800DD
:101CD0000E15C830F10080310420C830F100042016
:101CE0000E11C830F1000420E10A0319E20A88311C
:101CF0005F2E20000C110E140C150E10FF30DB00AF
:101D0000E101FF30E200E3010130E400E501E6011A
:101D1000E701E801E901EA01103069026A080318E5
:101D2000932E0319952EEA1FC42F01305905ED009B
:101D3000EE01EF01ED080319EF0AEE08031DEF01B4
:101D4000EF08031DAB2E69080F3CEB006A09EC009D
:101D50000318EC0AAF2E6908EB006A08EC000C11BE
:101D60000C150130F1008031042088318C1ABC2E12
:101D70000C1ABC2E8E1DF92E5B0A031DE62E690877
:101D8000DB006908ED000E247008E2005C086906BB
:101D900003196A08031DCE2E4408E1008C1ED32EC1
:101DA0000130ED00D42EED010C1ED92E0230EE00D4
:101DB000DA2EEE016E08ED048E1DE12E0430EE00E9
:101DC000E22EEE016E086D04E104F92E581EF92E84
:101DD000E308031DF92E8C1EF02E0130E300F92ECE
:101DE0000C1EF52E0230E300F92E8E1DF92E033065
:101DF000E3008E1A042F8E1CBB2F6B0EF039ED0002
:101E00006D080F38DE00BB2F8E1C602FE80A6408B7
:101E10004005ED0065084105EE0066084205EF004B
:101E200067084305F00000306D046E046F04700411
:101E3000FF39031DBB2F6408C0046508C104660890
:101E4000C2046708C30400308500203084006B089A
:101E50008407000A0319BB2F01305705003003190E
:101E600058050319482F5D082100B900003085008E
:101E70002030840020006B08840700082100BA008D
:101E800020005E082100BB0080313F208831BB2F3D
:101E9000083057050030031958050319BB2F5D089A
:101EA0002100B900003085002030840020006B083C
:101EB000840700082100BA0080312D208831BB2F13
:101EC00064084005031D702F65084105031D702F30
:101ED00066084205031D702F670843050319BB2FD1
:101EE0006409ED006509EE006609EF006709F0007E
:101EF0006D08C0056E08C1056F08C2057008C305EE
:101F000000308500203084006B088407000A031924
:101F1000BB2F043057050030031958050319A52FAE
:101F20005D082100B90000308500203084002000C9
:101F30006B08840700082100BA0020005E08210019
:101F4000BB0080313F208831BB2F02305705003065
:101F5000031958050319BB2F5D082100B900003093
:101F600085002030840020006B08840700082100D1
:101F7000BA0080312D20E435E50DE60DE70DE90AC4
:101F80000319EA0A88318C2E90318E1A2A295C08AE
:101F90005B06031944296108013A88310319D82FD7
:101FA000033A903103192128063A03199B28442942
:101FB0005B08003A0319F02F023A0319F72F063A8B
:101FC0000319FE2F013A903103190528023A03192B
:101FD0000D280E3A03191528023A03191D28442921
:101FE0004708E9004808EA00C0239031442949081D
:101FF000E9004A08EA00C023903144294B08E9006F
:102000004C08EA00C023903144294D08E9004E08ED
:10201000EA008831C023903144294F08E900500874
:10202000EA008831C023903144295108E900520860
:10203000EA008831C02390314429883167249031E7
:1020400044295B08003A03194128013A03194A2838
:10205000033A03195328013A03195C28073A031974
:102060006528013A03196E28023A03197E280F3AAF
:1020700003198728023A03199028013A031997286F
:1020800044290130E900EA01EB01EC0188315D23CC
:10209000903144290430E900EA01EB01EC01883178
:1020A0005D23903144292030E900EA01EB01EC0185
:1020B00088315D2390314429E9011030EA00EB01B9
:1020C000EC0188315D2390314429E9010130EA00B7
:1020D000EB01EC0188315D2390314429E901203086
:1020E000EA00EB01EC0188315D23E901C030EA0030
:1020F000EB01EC0188319724903144291030E9003C
:10210000EA01EB01EC0188315D2390314429E901BA
:102110000430EA00EB01EC0188315D239031442961
:102120000130E900EA01883148239031442988319F
:10213000AE23903144295B08003A0319BB28013AC9
:102140000319C428033A0319CD28013A0319D628E4
:10215000073A0319DF28013A0319E828033A03195B
:10216000F8280E3A03190829023A03191129013AED
:102170000319182944290830E900EA01EB01EC01B0
:1021800088315D23903144290230E900EA01EB01F6
:10219000EC0188315D23903144294030E900EA01A7
:1021A000EB01EC0188315D23903144298030E90056
:1021B000EA01EB01EC0188315D2390314429E9010A
:1021C0000230EA00EB01EC0188315D2390314429B3
:1021D000E9014030EA00EB01EC0188315D23E901BF
:1021E000A030EA00EB01EC018831972490314429BA
:1021F000E9018030EA00EB01EC0188315D23E9015F
:102200006030EA00EB01EC018831972490314429D9
:10221000E9010830EA00EB01EC0188315D239031DF
:1022200044290230E900EA018831482390314429E9
:102230005D08E900883195231030570500300319F7
:1022400058059031031944295F08E9008831952326
:102250009031442902306802031844290030EA0012
:102260006130E9000030EC004430EB000330ED0059
:102270008831DE23F4089031031944290030EA0044
:102280006130E9008831A0245B08DC0008002000F0
:10229000EF0188313C2370089A3A9031031979296B
:1022A00020004708D7004808D8005508D90056082C
:1022B000DA000130EB005808EC0088311D230230B1
:1022C000EB005708EC001D230330EB005A08EC002C
:1022D0001D230430EB005908EC001D23EB019A305C
:1022E000EC001D230E150430EB00803118200E1178
:1022F000080001302000EF0088313C2370082000E6
:10230000E600E401E5010230EF003C237008200004
:10231000E100E20161086504D70062086604D800A4
:102320000330EF003C2370082000E600E401E501E3
:102330000430EF003C2370082000E100E201610856
:102340006504D90062086604DA00080020009114D0
:102350002100911023001F129F159F101F101E13A4
:102360009E161E121E119D171D131D129C010F306B
:102370009B000800723021009900013024008C007D
:1023800020308E002100951330308C002A308E00D2
:1023900023008C018E0120008E1AD22988315C2600
:1023A0009031D8290E156430F100803104200E11CF
:1023B0009031A62100302100C3002030C200FF3040
:1023C000C4001030C500803153200030C3003030CD
:1023D000C200FF30C4001030C500532090314721A7
:1023E000883179269031F0292000C001C101C20155
:1023F000C301FF30DB00FF30DC00DD017F30DE0099
:102400000130DF007F30E000C401FF30C500C601AD
:102410000C30C7000230C8006C30C9001230CA004E
:102420006C30CB001330CC001C30CD000F30CE0010
:102430001C30CF001F30D0001C30D1001730D2002C
:102440001C30D3002D30D400D501D6014708D70069
:102450004808D8005508D9005608DA009031BA2942
:020000040001F9
:02000E00A4FF4D
:02001000FFDE11
:00000001FF
