:020000040000FA
:0400000090313D29D5
:08000800ED08031D08280800A3
:10001000F9300000000000000000FF3E031D092829
:1000200000000000000000000000ED0B08280800A0
:10003000FA30ED000420FA30ED000420FA30ED0033
:100040000420FA30ED000420E50B182808003808D9
:1000500023009A009E1C2A28080020000E1521006B
:1000600035089038B80027207F3021003605B800C9
:1000700027202100B801272020000E1108002000B1
:100080000E15210035089038B80027207F30210058
:100090003605B80027207F3021003705B80027201B
:1000A00020000E1108003E08C2003F08C3004108AE
:1000B000003C031866284308850042088400C20AF1
:1000C0000319C30A40088000C10357283E08C40032
:1000D0003F08C50008003508BA003608BB003708DD
:1000E000BC003808BD003908003C03188B283D08C7
:1000F00085003C088400BC0A0319BD0A0008BE0044
:100100003B0885003A088400BA0A0319BB0A3E0876
:100110008000B90373283508BE003608BF00080008
:1001200035082B3EBA003808850037088400B9012D
:10013000390884073A088000BA0135082F3EBB0011
:100140000318BA0AB90136030319B90A3908BB07FB
:100150003808850037088400013084073B08800098
:10016000BB013508323EBC000318BB0AB90102309E
:1001700036020319B90ABA01B935BA0D3908BC07F4
:100180003808850037088400023084073C08800066
:10019000BB013508373EBC000318BB0AB901033068
:1001A00036020319B90ABA01B935BA0D3908BC07C4
:1001B0003808850037088400033084073C08800035
:1001C000BA0135083B3EBB000318BA0AB901360331
:1001D0000319B90A3908BB073808850037088400B5
:1001E000043084073B0880003508433EB9003708D7
:1001F0008400053084073908800008003508283E4F
:10020000BA003808850037088400B9013908840726
:100210003A08800035082F3EB900370884000130C5
:10022000840739088000BB013508343EBC00031840
:10023000BB0AB901033036020319B90ABA01B9354C
:10024000BA0D3908BC073808850037088400023029
:1002500084073C088000BB013508373EBC0003180A
:10026000BB0AB90136030319B90ABA01B935BA0D87
:100270003908BC0738088500370884000330840734
:100280003C088000BB0135083B3EBC000318BB0A9C
:10029000B901023036020319B90ABA01B935BA0DEB
:1002A0003908BC0738088500370884000430840703
:1002B0003C0880003508403EB9003708840005300E
:1002C00084073908800008003508283EBA0038083D
:1002D000850037088400B901390884073A0880008E
:1002E00035082F3EB90037088400013084073908EB
:1002F0008000BB013508343EBC000318BB0AB901BD
:10030000033036020319B90ABA01B935BA0D3908F2
:10031000BC073808850037088400023084073C0891
:100320008000BA013508383EBB000318BA0AB9018B
:1003300036030319B90A3908BB073808850037089E
:100340008400033084073B088000BB0135083B3E36
:10035000BC000318BB0AB901023036020319B90AFE
:10036000BA01B935BA0D3908BC0738088500370815
:100370008400043084073C0880003508403EB90002
:1003800037088400053084073908800008003508E4
:10039000283EBA003808850037088400B9013908BA
:1003A00084073A08800035082F3EB90037088400DA
:1003B0000130840739088000BB013508323EBC009B
:1003C0000318BB0AB901033036020319B90ABA018E
:1003D000B90DBA0DB90DBA0DFC303905BC07380896
:1003E000850037088400023084073C088000BA0189
:1003F0003508383EBB000318BA0AB90136030319A1
:10040000B90A3908BB07380885003708840003306B
:1004100084073B088000BB0135083B3EBC00031845
:10042000BB0AB901023036020319B90ABA01B9355B
:10043000BA0D3908BC073808850037088400043035
:1004400084073C0880003508403EB9003708840026
:1004500005308407390880000800803020005505E9
:100460000030031956050319412A210035082D3E95
:10047000B90038088500370884000130840739083E
:10048000800021003508323EB90038088500370861
:1004900084000230840739088000BB013508393EEA
:1004A000BC000318BB0AB901023036020319B90AAD
:1004B000BA01B935BA0D3908BC07380885003708C4
:1004C0008400033084073C08800035083E3EB900B4
:1004D000370884000430840739088000BA013508E1
:1004E000413EBD000318BA0AB90136030319B90A1F
:1004F000BC01B935BC0D3908BD073A08BC3DBB018C
:10050000033036020319BB0A3B08BD0238088500D8
:1005100037088400053084073D08800008008030DB
:10052000200055050030031956050319A32A2100A0
:1005300035082D3EB90038088500370884000130A1
:1005400084073908800021003508323EB900380898
:100550008500370884000230840739088000BB0119
:100560003508393EBC000318BB0AB9010230360217
:100570000319B90ABA01B935BA0D3908BC073808E8
:10058000850037088400033084073C088000350864
:100590003E3EB900370884000430840739088000E3
:1005A000BC013508423EBD000318BC0AB901360340
:1005B0000319B90A3908BD070318BC0ABA01033088
:1005C00036020319BA0ABB01BA35BB0D3A08BD029F
:1005D0003808850037088400053084073D0880000E
:1005E0000800803020005505003003195605031916
:1005F000052B210035082D3EB90038088500370845
:100600008400013084073908800021003508323E1B
:10061000B90038088500370884000230840739089B
:100620008000BB013508393EBC000318BB0AB90184
:10063000023036020319B90ABA01B935BA0D3908C0
:10064000BC073808850037088400033084073C085D
:10065000800035083C3EB900370884000430840728
:1006600039088000BC013508423EBD000318BC0AB1
:10067000B90136030319B90A3908BD070318BC0AC2
:10068000BA01033036020319BA0ABB01BA35BB0DF1
:100690003A08BD0238088500370884000530840711
:1006A0003D08800008008030200055050030031907
:1006B00056050319682B210035082B3EBA0038086F
:1006C000850037088400B901390884073A0880009A
:1006D00021003508303EB90038088500370884000D
:1006E0000130840739088000BA013508343EBB0068
:1006F0000318BA0AB90136030319B90A3908BB0746
:100700003808850037088400023084073B088000E1
:10071000BB013508373EBC000318BB0AB9010230E3
:1007200036020319B90ABA01B935BA0D3908BC073E
:100730003808850037088400033084073C088000AF
:10074000BB0135083C3EBC000318BB0AB9010330AD
:1007500036020319B90ABA01B935BA0D3908BC070E
:100760003808850037088400043084073C0880007E
:10077000BA013508403EBB000318BA0AB901360376
:100780000319B90A3908BB073808850037088400FF
:10079000053084073B0880000800803020005505A4
:1007A0000030031956050319E22B210035082B3EB2
:1007B000BA003808850037088400B9013908840771
:1007C0003A08800021003508303EB900380885001D
:1007D000370884000130840739088000BA013508E1
:1007E000343EBB000318BA0AB90136030319B90A2B
:1007F0003908BB07380885003708840002308407B1
:100800003B088000BA0135083A3EBB000318BA0A1B
:10081000B901023036020319B90A3908BB02380897
:10082000850037088400033084073B088000BB0143
:1008300035083C3EBC000318BB0AB9010330360240
:100840000319B90ABA01B935BA0D3908BC07380815
:10085000850037088400043084073C088000BA0112
:100860003508403EBB000318BA0AB9013603031924
:10087000B90A3908BB0738088500370884000530F5
:1008800084073B08800008008030200055050030B8
:10089000031956050319592C21003508283EBA00C2
:1008A0003808850037088400B901390884073A08F8
:1008B0008000210035082D3EB90038088500370832
:1008C00084000130840739088000BB013508343EBC
:1008D000BC000318BB0AB901023036020319B90A79
:1008E000BA01B935BA0D3908BC0738088500370890
:1008F0008400023084073C088000BB013508393E83
:10090000BC000318BB0AB901033036020319B90A47
:10091000BA01B935BA0D3908BC073808850037085F
:100920008400033084073C088000BB0135083C3E4E
:10093000BC000318BB0AB90136030319B90ABA018E
:10094000B935BA0D3908BC07380885003708840066
:10095000043084073C0880003508403EB900370861
:1009600084000530840739088000080080302000AA
:1009700055050030031956050319CB2C2100350805
:10098000283EBA003808850037088400B9013908C4
:1009900084073A088000210035082D3EB900380848
:1009A0008500370884000130840739088000BB01C6
:1009B0003508343EBC000318BB0AB90102303602C8
:1009C0000319B90ABA01B935BA0D3908BC07380894
:1009D000850037088400023084073C088000BB0192
:1009E0003508393EBC000318BB0AB9010330360292
:1009F0000319B90ABA01B935BA0D3908BC07380864
:100A0000850037088400033084073C088000BA0161
:100A100035083D3EBB000318BA0AB9013603031975
:100A2000B90A3908BB073808850037088400043044
:100A300084073B0880003508403EB9003708840031
:100A400005308407390880000800803020005505F3
:100A500000300319560503193A2D21003508283EA8
:100A6000BA003808850037088400B90139088407BE
:100A70003A088000210035082D3EB900380885006D
:100A8000370884000130840739088000BB0135082D
:100A9000343EBC000318BB0AB90102303602031908
:100AA000B90ABA01B935BA0D3908BC07380885004A
:100AB00037088400023084073C088000BB013508F9
:100AC000373EBC000318BB0AB901033036020319D4
:100AD000B90ABA01B90DBA0DB90DBA0DFC30390514
:100AE000BC073808850037088400033084073C08B9
:100AF0008000BA0135083D3EBB000318BA0AB901AF
:100B000036030319B90A3908BB07380885003708C6
:100B10008400043084073B0880003508403EB9005B
:100B20003708840005308407390880000800FF0179
:100B30003008BE003108BF00FF30C0001030C100D7
:100B4000532000308500B23084007F08FF0A8407FC
:100B5000003080007B0885007A088400023084071A
:100B60000008033A031DBD2D00308500B23084001B
:100B70007F08FF0A8407023080007B0885007A081E
:100B80008400023084070003031DD02D003085004F
:100B9000B23084007F08FF0A840705308000F32DFF
:100BA0007B0885007A0884000008BE003E08023AEF
:100BB0000319E02D043A0319E02D053A031DEA2D2F
:100BC00000308500B23084007F08FF0A84070330BC
:100BD0008000F32D00308500B23084007F08FF0ACA
:100BE0008407043080007B0885007A0884000008B0
:100BF000B7003708073A0319012E043A03190B2EE0
:100C0000152E00308500B23084007F08FF0A84076B
:100C1000083080001E2E00308500B23084007F082E
:100C2000FF0A8407063080001E2E00308500B23097
:100C300084007F08FF0A8407073080007B08850056
:100C40007A088400023084070008023A031D312E1E
:100C500000308500B23084007F08FF0A8407093025
:100C600080007B0885007A0884000008B8003808F6
:100C7000043A0319422E023A0319422E033A031989
:100C80004C2E552E00308500B23084007F08FF0ABC
:100C900084070A308000552E00308500B230840071
:100CA0007F08FF0A84070B3080007B0885007A0AE2
:100CB00084007D080007B900BA01BB01BC01BD0179
:100CC0007E083C023D080318672E0319692EBD1FDC
:100CD000972E00308500B23084003A08840700085F
:100CE0003907BF0031088500300884003C08BE0089
:100CF000BC0A0319BD0A3E0884073F088000BA0AEF
:100D00000319BB0A3B08803ABE0080303E02031D37
:100D10008B2E7F083A02031C602EFC0B922E3C089F
:100D2000BE0008000C30B907BA01BB01602E3C08B8
:100D3000BE000800FD08031D0800FE01FF01103081
:100D40007E027F080318A62E0319A82EFF1F080095
:100D50007B0885007A087E078400000A0319C22EEA
:100D60007C082100B5007B0885007A087E07840096
:100D70000008B6002D207B0885007A087E078400D5
:100D8000FF308000FE0A0319FF0A9F2EB101B20155
:100D90001030310232080318CF2E0319D12EB21FA2
:100DA0002D2F7B0885007A0831078400000A03197B
:100DB000292FB0080319172FB301B40110303302E3
:100DC00034080318E52E0319E72EB41FFE2E7D0804
:100DD00085007C0884003308B500350884070008C6
:100DE000B6007B0885007A083107840036080006C3
:100DF0000319FE2EB30A0319B40ADE2E103033068F
:100E000003193408031D292F7E08B5007B088500CF
:100E10007A08310784000008B6002D207B08850081
:100E20007A08210031078400FF308000292F7E08D6
:100E3000B5007B0885007A08310784000008B600F9
:100E40002D207B0885007A08210031078400FF30BF
:100E50008000B10A0319B20AC82EFF0803197C2FBB
:100E6000B101B2011030310232080318392F0319D1
:100E70003B2FB21F7C2F7D0885007C083107840042
:100E8000000A0319772FB301B4011030330234087C
:100E900003184C2F03194E2FB41F652F7D088500B2
:100EA0007C0884003108B500350884070008B600C6
:100EB0007B0885007A08330784003608000603198A
:100EC000652FB30A0319B40A452F103033060319EE
:100ED0003408031D772F7E08B5007D0885007C0847
:100EE000310784000008B6007F08B7003F202100CA
:100EF000B10A0319B20A322F7A08B5007B08B6008E
:100F00007C08B7007D08B8001030B9006B200800DD
:100F10007E082100BE007F08BF00FF30C0001030F7
:100F2000C1005320B401B501B601B701B8011030BA
:100F30007C07FD000318B80A38087B02031DA22FA6
:100F40007D087A02031CA62FFB1F08000030340422
:100F5000350436043704FF39031DB32FB4010830BC
:100F6000B500B601B70134083005031DC32F35089D
:100F70003105031DC32F36083205031DC32F370863
:100F800033050319D72F7B08803AB9008030390226
:100F9000031DCC2F7C087A02031CD72F7F08850005
:100FA0007E0884007C087A0284077A088000FA0AA6
:100FB0000319FB0AB736B60CB50CB40C962F7D0896
:100FC0002100BE007E08BF00FF30C0001030C1000D
:100FD00053207B0885007A0884000008FF007F0802
:100FE000013A0319FB2F033A88310319FB28063A0B
:100FF0000319FC29FC2A7B0885007A0A8400000872
:10100000B0003008003A883103192828013A031942
:101010003928033A03194B28013A03195C28073A87
:1010200003196E28013A03197F28033A03199128FE
:10103000013A0319A3280F3A0319B428013A0319F6
:10104000C628033A0319D728013A0319E928FE2ACA
:10105000B5017B0885007A08840002308407000807
:10106000B6007D08B7007E08B80080315323883170
:10107000FE2A0430B5007B0885007A08840002301F
:1010800084070008B6007D08B7007E08B8008031EC
:10109000B6248831FE2AB5017B0885007A088400D1
:1010A000023084070008B6007D08B7007E08B8004B
:1010B00080318F228831FE2A0630B5007B088500FA
:1010C0007A088400023084070008B6007D08B70063
:1010D0007E08B8008031B6248831FE2AB5017B082D
:1010E00085007A088400023084070008B6007D0875
:1010F000B7007E08B800803164218831FE2A0130B3
:10110000B5007B0885007A08840002308407000857
:10111000B6007D08B7007E08B800803164218831B0
:10112000FE2A0230B5007B0885007A088400023070
:1011300084070008B6007D08B7007E08B80080313B
:1011400064218831FE2AB5017B0885007A08840075
:10115000023084070008B6007D08B7007E08B8009A
:10116000803190208831FE2A0430B5007B0885004C
:101170007A088400023084070008B6007D08B700B2
:101180007E08B800803164218831FE2AB5017B08D1
:1011900085007A088400023084070008B6007D08C4
:1011A000B7007E08B8008031B6248831FE2A0130AD
:1011B000B5007B0885007A088400023084070008A7
:1011C000B6007D08B7007E08B8008031B6248831AB
:1011D000FE2A0230B5007B0885007A0884000230C0
:1011E00084070008B6007D08B7007E08B80080318B
:1011F000B6248831FE2A7B0885007A0A840000081C
:10120000B1003108003A03192729013A0319392995
:10121000033A03194B29013A03195C29073A0319C8
:101220006E29013A03197F29033A03199129013ADA
:101230000319A3290F3A0319B529013A0319C7293C
:10124000033A0319D829013A0319EA29FE2A03307F
:10125000B5007B0885007A08840002308407000806
:10126000B6007D08B7007E08B8008031442488317C
:10127000FE2A0430B5007B0885007A08840002301D
:1012800084070008B6007D08B7007E08B8008031EA
:1012900044248831FE2AB5017B0885007A08840041
:1012A000023084070008B6007D08B7007E08B80049
:1012B00080312D228831FE2A0630B5007B0885005A
:1012C0007A088400023084070008B6007D08B70061
:1012D0007E08B800803144248831FE2AB5017B089D
:1012E00085007A088400023084070008B6007D0873
:1012F000B7007E08B8008031FE208831FE2A013018
:10130000B5007B0885007A08840002308407000855
:10131000B6007D08B7007E08B8008031FE20883115
:10132000FE2A0230B5007B0885007A08840002306E
:1013300084070008B6007D08B7007E08B800803139
:10134000FE208831FE2A0330B5007B0885007A082C
:101350008400023084070008B6007D08B7007E08CC
:10136000B8008031FE208831FE2A0430B5007B08A9
:1013700085007A088400023084070008B6007D08E2
:10138000B7007E08B8008031FE208831FE2AB50102
:101390007B0885007A088400023084070008B600C4
:1013A0007D08B7007E08B800803144248831FE2AC9
:1013B0000130B5007B0885007A088400023084077C
:1013C0000008B6007D08B7007E08B80080314424CC
:1013D0008831FE2A0230B5007B0885007A08840037
:1013E000023084070008B6007D08B7007E08B80008
:1013F000803144248831FE2A7B0885007A0A8400E3
:101400000008B2003208003A0319282A013A0319E9
:10141000392A033A03194B2A013A03195C2A073A7D
:1014200003196E2A013A03197F2A033A0319912AF4
:10143000013A0319A32A0F3A0319B52A013A0319ED
:10144000C72A033A0319D82A013A0319EA2AFE2ABD
:10145000B5017B0885007A08840002308407000803
:10146000B6007D08B7007E08B8008031CD238831F2
:10147000FE2A0430B5007B0885007A08840002301B
:1014800084070008B6007D08B7007E08B8008031E8
:1014900025258831FE2AB5017B0885007A0884005D
:1014A000023084070008B6007D08B7007E08B80047
:1014B0008031F1228831FE2A0630B5007B08850094
:1014C0007A088400023084070008B6007D08B7005F
:1014D0007E08B800803125258831FE2AB5017B08B9
:1014E00085007A088400023084070008B6007D0871
:1014F000B7007E08B8008031C7218831FE2A01304C
:10150000B5007B0885007A08840002308407000853
:10151000B6007D08B7007E08B8008031C721883149
:10152000FE2A0230B5007B0885007A08840002306C
:1015300084070008B6007D08B7007E08B800803137
:10154000C7218831FE2A0330B5007B0885007A0860
:101550008400023084070008B6007D08B7007E08CA
:10156000B8008031C7218831FE2A0430B5007B08DD
:1015700085007A088400023084070008B6007D08E0
:10158000B7007E08B8008031C7218831FE2AB50136
:101590007B0885007A088400023084070008B600C2
:1015A0007D08B7007E08B800803125258831FE2AE5
:1015B0000130B5007B0885007A088400023084077A
:1015C0000008B6007D08B7007E08B80080312525E8
:1015D0008831FE2A0230B5007B0885007A08840035
:1015E000023084070008B6007D08B7007E08B80006
:1015F000803125258831FE2AB5010800B301B401E8
:101600001030330234080318072B0319092BB41FB9
:101610001C2B7E0885007D0833078400000A03190F
:10162000182B7E0885007D08330784007C0880071E
:10163000B30A0319B40A002B0630B50008002300D2
:1016400095181F2B200065082300910020006608D4
:101650002300930095131515200067108B1B67144A
:101660008B13553023009600AA309600951415115F
:10167000200067188B17671C8B1308002300951830
:101680003E2B20006B0823009100951315141308BE
:101690002000EC0008002000E501DC080319E50A41
:1016A0006508DC000330E5005C08E6001F230E152A
:1016B0000230E500803118200E1108005508E900BD
:1016C0005608EA00EB01EC0165086905031D742B5F
:1016D00066086A05031D742B67086B05031D742BD0
:1016E00068086C050319832B6509ED006609EE0097
:1016F0006D08D5056E08D6050E150A30ED0080314F
:1017000004200E1108006508D5046608D6040E15DD
:101710000A30ED00803104200E116430ED00042009
:101720000E150A30ED0004200E110800E601E70155
:1017300080306602670803189F2B0319A12BE71F4F
:10174000080065082100B500200066082100B600E9
:1017500080312D20E60A0319E70A8831982B2000F2
:10176000E5017B30E6001F230130E5005608E60066
:101770001F230230E5005508E6001F230E15023036
:10178000E500803118200E1108006508D5006608B4
:10179000D6000E150A30ED00803104200E116430A1
:1017A000ED0004200E150A30ED0004200E11643007
:1017B000ED0004200E150A30ED0004200E116430F7
:1017C000ED00042008006508EC006608ED006708DD
:1017D000EE006808EF006908003C0318112C6D0842
:1017E00085006C088400EC0A0319ED0A0008EA0081
:1017F0006F0885006E088400EE0A0319EF0A0008DE
:10180000EB006B086A0603190F2C6B086A020318B9
:101810000C2CFF30F00008000130F0000800E90354
:10182000EB2BF00108002000EB013E236C087B3A13
:1018300003191F2C4708D5004808D600322C013068
:10184000EB003E236C08EA00E801E9010230EB00FE
:101850003E236C08E500E60165086904D5006608CA
:101860006A04D6000E150A30ED00803104200E11F6
:101870006430ED0004200E150A30ED0004200E1136
:101880006430ED0004200E150A30ED0004200E1126
:101890006430ED00042008006509E9006609EA00EB
:1018A0006908D5056A08D605080066088500650838
:1018B00084008008031D922C0030FB002030FA00C9
:1018C0005808FC0000305505FE0056080139FF009D
:1018D0002100B001FE080319B00AFF08031DB00182
:1018E000FD01B0080319FD0A80319A260030FB0083
:1018F0003030FA0020005A08FC0000305505FE0088
:1019000056080439FF002100B001FE080319B00A8F
:10191000FF08031DB001FD01B0080319FD0A9A2656
:101920008831F42D20305505003003195605031970
:10193000F22C6508FA006608FB000C30FC00003051
:10194000FE006930FD008031DF273508F900F90815
:10195000031DBE2C20006508FA006608FB00FF305E
:10196000FC003C30FD000630FE0000302100B100DC
:101970006930B000803197250630F90040302000F2
:10198000550500300319560588310319812DE701EB
:10199000E8010630670268080318D02C0319D22C1E
:1019A000E81FEF2C00308500693084006708840749
:1019B000000A0319EB2C00308500693084006708A9
:1019C000840700080C3EFA006930840067080A3E6C
:1019D00084077A088000E70A0319E80AC92C103046
:1019E000F900812DD61E0E2D66088500650A84003B
:1019F0000008FA00FB013030FC00FF302100B0008D
:101A00000F30B100B201B3010030FF006930FE00B9
:101A1000803188271030F9008831812D561F522DD2
:101A200066088500650884000008023A0319202D25
:101A300066088500650884000008063A031D382DF5
:101A400066088500650A84000008FA00FB01303052
:101A5000FC005A302100B0000B30B100B201B301DC
:101A60000030FF006930FE008031882788314E2D1C
:101A700066088500650A84000008FA00FB01303022
:101A8000FC00D5302100B0000A30B100B201B30132
:101A90000030FF006930FE00803188271030F900E7
:101AA0008831812DD61F6E2D66088500650A840059
:101AB0000008FA00FB013030FC0094302100B00037
:101AC0000A30B100B201B3010030FF006930FE00FE
:101AD000803188271030F9008831812D6508FA009F
:101AE0006608FB00FF30FC002430FD001030FE00D3
:101AF00000302100B1006930B000803197251030EE
:101B0000F90000302100BF00A030BE00FF30C0004F
:101B10001030C100803153200030B600A030B50035
:101B20000030B8006930B7007908B9006B20003088
:101B3000FB002030FA000030FD00A030FC00200047
:101B40005808FE00FF01003055052100B1002000BB
:101B5000560802392100B200B301B1080319B30AD3
:101B6000B208031DB301B001B3080319B00AC626B9
:101B7000103020005505003003195605883103192F
:101B8000F42D6508FA006608FB000130FC002430E3
:101B9000FD001030FE0000302100B100A030B00088
:101BA000803197250030FB003030FA000030FD0016
:101BB000A030FC0020005A08FE005B08FF00003047
:101BC00055052100B1002000560808392100B20057
:101BD000B301B1080319B30AB208031DB301B00180
:101BE000B3080319B00AC6262000660885006508F8
:101BF00084000008C400840A0008C500840A0008A4
:101C0000C60008002000DD01DE0101305D025E0833
:101C100003180C2E03190E2EDE1F1C2E0E1501307C
:101C2000E500803118200E11FA30ED000420DD0AA5
:101C30000319DE0A8831052E0E150A30ED008031B9
:101C400004200E11FA30ED000420DD01DE01023027
:101C50005D025E08883103182F2E0319312EDE1F16
:101C60003F2E0E150130E500803118200E11FA309C
:101C7000ED000420DD0A0319DE0A8831272E0E1537
:101C80000A30ED00803104200E11080020000C11F4
:101C90000E140C150E10DD01FF30DE00DF010130E7
:101CA000E000E101E201E301E401E501E6011030B9
:101CB0006502660803185E2E0319602EE61F782F52
:101CC000DC0803196B2E65080F3CE7006609E80085
:101CD0000318E80A6F2E6508E7006608E8000C1193
:101CE0000C158C1A772E0C1A772E8E1DAF2E5E0ACD
:101CF000031D9C2E6508DE0057086506031966085B
:101D0000031D842E4408DD008C1E892E0130EB005B
:101D10008A2EEB010C1E8F2E0230E900902EE90175
:101D20006908EB048E1D972E0430EA00982EEA0114
:101D30006A086B04DD04AF2E561EAF2EDF08031DAC
:101D4000AF2E8C1EA62E0130DF00AF2E0C1EAB2E48
:101D50000230DF00AF2E8E1DAF2E0330DF008E1A53
:101D6000B82E8E1C6F2F670EF0390F38D9006F2FE9
:101D70008E1C142FE40A60084005E9006108410543
:101D8000EA0062084205EB0063084305EC000030FE
:101D900069046A046B046C04FF39031D6F2F60082B
:101DA000C0046108C1046208C2046308C3040030AF
:101DB00085002030840067088407000A03196F2F0C
:101DC000013055050030031956050319FC2E58083B
:101DD0002100B50020000030850020308400670815
:101DE000840700082100B600200059082100B70030
:101DF00080313F2088316F2F08305505003003199E
:101E0000560503196F2F58082100B5002000003037
:101E10008500203084006708840700082100B60090
:101E200080312D2088316F2F60084005031D242F3D
:101E300061084105031D242F62084205031D242F5C
:101E40006308430503196F2F6009E9006109EA007F
:101E50006209EB006309EC006908C0056A08C10566
:101E60006B08C2056C08C305003085002030840073
:101E700067088407000A03196F2F043055050030E6
:101E8000031956050319592F58082100B5002000E1
:101E90000030850020308400670884070008210096
:101EA000B600200059082100B70080313F2088315A
:101EB0006F2F0230550500300319560503196F2F97
:101EC00058082100B5002000003085002030840033
:101ED0006708840700082100B60080312D20E03516
:101EE000E10DE20DE30DE50A0319E60A8831572EEC
:101EF00090318E1ACB285E0857060319E5285D0835
:101F0000013A883103198C2F033A0319D72F063A67
:101F1000903103194628E5285E08003A0319A72FD7
:101F2000023A0319AE2F063A0319B52F013A0319E5
:101F3000BC2F023A0319C32F0E3A0319CA2F033AD2
:101F40000319D12F013A0319D42F9031E5284708FE
:101F5000E5004808E600C5239031E5284908E5007A
:101F60004A08E600C5239031E5284B08E5004C08F7
:101F7000E600C5239031E5284D08E5004E08E6004F
:101F8000C5239031E5284F08E5005008E600C52339
:101F90009031E5285108E5005208E600C52390314C
:101FA000E5284B239031E52813249031E5285E087D
:101FB000003A0319F52F013A0319FD2F033A903126
:101FC00003190528013A03190E28073A031917289F
:101FD000013A031920280C3A03193028033A03194F
:101FE0003928013A03194228E5280130E500E601C5
:101FF000E701E8015E239031E5280430E500E601C1
:10200000E701E8015E239031E5282030E500E60194
:10201000E701E80188315E239031E528E5011030C1
:10202000E600E701E80188315E239031E528E5010B
:102030000130E600E701E80188315E239031E528B0
:10204000E5012030E600E701E80188315E23E50183
:10205000C030E600E701E80188314C249031E528E2
:102060001030E500E601E701E80188315E23903198
:10207000E528E5010430E600E701E80188315E2348
:102080009031E5288831AF239031E5285E08003A89
:1020900003196328013A03196C28033A03197528B8
:1020A000013A03197E28073A03198728013A0319D0
:1020B0009028033A0319A0280C3A0319B028013AD2
:1020C0000319B928E5280830E500E601E701E80131
:1020D00088315E239031E5280230E500E601E70112
:1020E000E80188315E239031E5284030E500E601C3
:1020F000E701E80188315E239031E5288030E50072
:10210000E601E701E80188315E239031E528E50129
:102110000230E600E701E80188315E239031E528CE
:10212000E5014030E600E701E80188315E23E50182
:10213000A030E600E701E80188314C249031E52821
:10214000E5018030E600E701E80188315E23E50122
:102150006030E600E701E80188314C249031E52841
:10216000E5010830E600E701E80188315E2390319F
:10217000E5285808E50088319623103055050030D1
:102180000319560590310319E5285A08E5008831EE
:1021900096239031E528023064020318E5280030C8
:1021A000E6005D30E5000030E8004430E700033031
:1021B000E9008831E323F00890310319E528003065
:1021C000E6005D30E500883155245E08D700080040
:1021D000200091142100911023001F129F159F10C1
:1021E0001F101E139E161E121E119D171D131D1269
:1021F0009C010F309B0008007230210099000130D3
:1022000024008C0020308E002100951330308C008B
:102210002A308E0023008C018E0120008E1A142992
:102220008831022690311A290E156430ED00803174
:1022300004200E119031E82000302100BF00203032
:10224000BE00FF30C0001030C1008031532000308C
:10225000BF003030BE00FF30C0001030C10053203E
:1022600003302000EB0088313E23DC016C030319AE
:10227000DC0A88314626903139292000C001C1018D
:10228000C201C301FF30D700D8017F30D90001302F
:10229000DA007F30DB00C401FF30C500C6010C301E
:1022A000C7000230C8006C30C9001230CA006C3060
:1022B000CB001330CC001C30CD000F30CE001C30D2
:1022C000CF001F30D0001C30D1001730D2001C309E
:1022D000D3002D30D4004708D5004808D600DC01D3
:0422E0009031FC2815
:020000040001F9
:02000E00A4FF4D
:02001000FFDE11
:00000001FF
