:020000040000FA
:0400000088311F2EF6
:08000800DE08031D08280800B2
:10001000F9300000000000000000FF3E031D092829
:1000200000000000000000000000DE0B08280800AF
:10003000370823009A009E1C1B28080020000E157C
:10004000210034089038B70018207F302100350592
:10005000B70018202100B701182020000E11080059
:1000600020000E15210034089038B70018207F308A
:1000700021003505B70018207F3021003605B70074
:10008000182020000E1108003C08C0003D08C100E7
:100090003F08003C031857284108850040088400A9
:1000A000C00A0319C10A3E088000BF0348283C0863
:1000B000C2003D08C30008003408B9003508BA0082
:1000C0003608BB003708BC003808003C03187C2801
:1000D0003C0885003B088400BB0A0319BC0A0008E1
:1000E000BD003A08850039088400B90A0319BA0A24
:1000F0003D088000B80364283408BD003508BE0000
:10010000080034082B3EB900370885003608840003
:10011000B8013808840739088000B90134082F3E37
:10012000BA000318B90AB80135030319B80A380828
:10013000BA073708850036088400013084073A087A
:100140008000BA013408323EBB000318BA0AB80175
:10015000023035020319B80AB901B835B90D3808AB
:10016000BB073708850036088400023084073B0847
:100170008000BA013408373EBB000318BA0AB80140
:10018000033035020319B80AB901B835B90D38087A
:10019000BB073708850036088400033084073B0816
:1001A0008000B90134083B3EBA000318B90AB8010F
:1001B00035030319B80A3808BA0737088500360826
:1001C0008400043084073A0880003408433EB800B5
:1001D0003608840005308407380880000800340899
:1001E000283EB9003708850036088400B801380871
:1001F00084073908800034082F3EB8003608840090
:100200000130840738088000BA013408343EBB004E
:100210000318BA0AB801033035020319B80AB90144
:10022000B835B90D3808BB07370885003608840093
:10023000023084073B088000B9013408373EBA0019
:100240000318B90AB80135030319B80A3808BA0700
:100250003708850036088400033084073A08800098
:10026000BA0134083B3EBB000318BA0AB801023099
:1002700035020319B80AB901B835B90D3808BB07FA
:100280003708850036088400043084073B08800066
:100290003408403EB800360884000530840738082A
:1002A000800008003408283EB90037088500360869
:1002B0008400B801380884073908800034082F3ECC
:1002C000B800360884000130840738088000BA017D
:1002D0003408343EBB000318BA0AB80103303502B3
:1002E0000319B80AB901B835B90D3808BB07370882
:1002F000850036088400023084073B088000B9017D
:100300003408383EBA000318B90AB8013503031996
:10031000B80A3808BA073708850036088400033061
:1003200084073A088000BA0134083B3EBB0003183A
:10033000BA0AB801023035020319B80AB901B83552
:10034000B90D3808BB07370885003608840004302B
:1003500084073B0880003408403EB800360884001B
:10036000053084073808800008003408283EB900AA
:100370003708850036088400B80138088407390832
:10038000800034082F3EB80036088400013084070E
:1003900038088000BA013408323EBB000318BA0A9C
:1003A000B801033035020319B80AB901B80DB90D07
:1003B000B80DB90DFC303805BB0737088500360885
:1003C0008400023084073B088000B9013408383EBD
:1003D000BA000318B90AB80135030319B80A380876
:1003E000BA073708850036088400033084073A08C6
:1003F0008000BA0134083B3EBB000318BA0AB801BA
:10040000023035020319B80AB901B835B90D3808F8
:10041000BB073708850036088400043084073B0892
:1004200080003408403EB800360884000530840758
:10043000380880000800803020005505003003197E
:10044000560503192F2A210034082D3EB80037081D
:1004500085003608840001308407380880002100B8
:100460003408323EB8003708850036088400023070
:10047000840738088000BA013408393EBB000318ED
:10048000BA0AB801023035020319B80AB901B83501
:10049000B90D3808BB0737088500360884000330DB
:1004A00084073B08800034083E3EB80036088400CC
:1004B0000430840738088000BA013408413EBB008C
:1004C0000318BA0AB80135030319B80A3808BB077C
:1004D0000318BA0AB901033035020319B90A3908F9
:1004E000BB023708850036088400053084073B08C6
:1004F00080000800803020005505003003195605A3
:1005000003198E2A210034082D3EB80037088500D3
:100510003608840001308407380880002100340840
:10052000323EB80037088500360884000230840760
:1005300038088000BA013408393EBB000318BA0AF3
:10054000B801023035020319B80AB901B835B90D3E
:100550003808BB0737088500360884000330840755
:100560003B08800034083E3EB80036088400043062
:10057000840738088000BB013408423EBC000318E1
:10058000BB0AB80135030319B80A3808BC070318B9
:10059000BB0AB901033035020319B90ABA01B935EA
:1005A000BA0D3908BC0237088500360884000530CA
:1005B00084073C088000080080302000550500308A
:1005C000031956050319F02A210034082D3EB800FE
:1005D0003708850036088400013084073808800019
:1005E00021003408323EB800370885003608840000
:1005F0000230840738088000BA013408393EBB0055
:100600000318BA0AB801023035020319B80AB90151
:10061000B835B90D3808BB0737088500360884009F
:10062000033084073B08800034083C3EB80036089D
:1006300084000430840738088000BB013408423E3F
:10064000BC000318BB0AB80135030319B80A3808FF
:10065000BC070318BB0AB901033035020319B90AF4
:10066000BA01B935BA0D3908BC0237088500360819
:100670008400053084073C0880000800803020009A
:1006800055050030031956050319532B2100340872
:100690002B3EB9003708850036088400B8013808B9
:1006A00084073908800021003408303EB80037083C
:1006B0008500360884000130840738088000B901BD
:1006C0003408343EBA000318B90AB80135030319D7
:1006D000B80A3808BA07370885003608840002309F
:1006E00084073A088000BA013408373EBB0003187B
:1006F000BA0AB801023035020319B80AB901B8358F
:10070000B90D3808BB073708850036088400033068
:1007100084073B088000BA0134083C3EBB00031844
:10072000BA0AB801033035020319B80AB901B8355D
:10073000B90D3808BB073708850036088400043037
:1007400084073B088000B9013408403EBA00031812
:10075000B90AB80135030319B80A3808BA073708C7
:10076000850036088400053084073A0880000800B8
:100770008030200055050030031956050319CD2B94
:10078000210034082B3EB900370885003608840064
:10079000B801380884073908800021003408303E49
:1007A000B80037088500360884000130840738080F
:1007B0008000B9013408343EBA000318B90AB80100
:1007C00035030319B80A3808BA0737088500360810
:1007D0008400023084073A088000B90134083A3EA8
:1007E000BA000318B90AB801023035020319B80A71
:1007F0003808BA02370885003608840003308407B9
:100800003A088000BA0134083C3EBB000318BA0A1B
:10081000B801033035020319B80AB901B835B90D6A
:100820003808BB0737088500360884000430840781
:100830003B088000B9013408403EBA000318B90AE9
:10084000B80135030319B80A3808BA073708850014
:1008500036088400053084073A088000080080309C
:10086000200055050030031956050319442C2100BA
:100870003408283EB9003708850036088400B801DE
:100880003808840739088000210034082D3EB8005C
:100890003708850036088400013084073808800056
:1008A000BA013408343EBB000318BA0AB80102305A
:1008B00035020319B80AB901B835B90D3808BB07B4
:1008C0003708850036088400023084073B08800022
:1008D000BA013408393EBB000318BA0AB801033024
:1008E00035020319B80AB901B835B90D3808BB0784
:1008F0003708850036088400033084073B088000F1
:10090000B90134083C3EBA000318B90AB8013503EE
:100910000319B80A3808BA07370885003608840072
:10092000043084073A0880003408403EB800360896
:1009300084000530840738088000080080302000DB
:1009400055050030031956050319B32C210034084E
:10095000283EB9003708850036088400B8013808F9
:10096000840739088000210034082D3EB80037087C
:100970008500360884000130840738088000BA01F9
:100980003408343EBB000318BA0AB80102303502FD
:100990000319B80AB901B835B90D3808BB073708CB
:1009A000850036088400023084073B088000BA01C5
:1009B0003408393EBB000318BA0AB80103303502C7
:1009C0000319B80AB901B835B90D3808BB0737089B
:1009D000850036088400033084073B088000B90195
:1009E00034083D3EBA000318B90AB80135030319AB
:1009F000B80A3808BA07370885003608840004307A
:100A000084073A0880003408403EB8003608840065
:100A10000530840738088000080080302000550524
:100A20000030031956050319222D21003408283EF1
:100A3000B9003708850036088400B80138088407F3
:100A400039088000210034082D3EB80037088500A1
:100A5000360884000130840738088000BA01340861
:100A6000323EBB000318BA0AB8010230350203193E
:100A7000B80AB901B80DB90DB80DB90DFC3038057B
:100A8000BB073708850036088400023084073B081E
:100A90008000BA013408393EBB000318BA0AB80115
:100AA000033035020319B80AB901B835B90D380851
:100AB000BB073708850036088400033084073B08ED
:100AC0008000B90134083C3EBA000318B90AB801E5
:100AD00035030319B80A3808BA07370885003608FD
:100AE0008400043084073A0880003408403EB8008F
:100AF0003608840005308407380880000800FF01AC
:100B00007D082100BC007E08BD00FF30BE00103013
:100B1000BF00442000308500B03084007F08FF0A09
:100B20008407003080007A0885007908840002304C
:100B300084070008033A031DA62D00308500B0305D
:100B400084007F08FF0A8407023080007A0885004D
:100B500079088400023084070003031DB92D00309A
:100B60008500B03084007F08FF0A840705308000CC
:100B7000E02D7A088500790884000008BC003C0854
:100B8000023A0319CD2D043A0319CD2D013A031968
:100B9000CD2D043A0319CD2DD72D00308500B0306E
:100BA00084007F08FF0A840703308000E02D0030B6
:100BB0008500B03084007F08FF0A8407043080007D
:100BC0007A088500790884000008B5003508073ADE
:100BD0000319EE2D043A0319F82D022E003085007A
:100BE000B03084007F08FF0A8407083080000B2E95
:100BF00000308500B03084007F08FF0A840706308B
:100C000080000B2E00308500B03084007F08FF0A82
:100C10008407073080007A08850079088400023054
:100C200084070008023A031D1E2E00308500B030F4
:100C300084007F08FF0A8407093080007A08850055
:100C4000790884000008B6003608043A03192F2EEC
:100C5000023A03192F2E033A0319392E422E00307F
:100C60008500B03084007F08FF0A84070A308000C6
:100C7000422E00308500B03084007F08FF0A8407D0
:100C80000B3080007A088500790A84007C08000710
:100C9000B700B801B901BA01BB0110303A023B08F4
:100CA0000318542E0319562EBB1F842E00308500C6
:100CB000B03084003808840700083707BD007E087C
:100CC00085007D0884003A08BC00BA0A0319BB0AF3
:100CD0003C0884073D088000B80A0319B90A39089E
:100CE000803ABC0080303C02031D782E7F08380219
:100CF000031C4D2EFB0B7F2E3A08BC0008000C3065
:100D0000B707B801B9014D2E3A08BC000800FC082D
:100D1000031D0800FD01FE0110307D027E0803184E
:100D2000932E0319952EFE1F08007A088500790876
:100D30007D078400000A0319AF2E7B082100B40050
:100D40007A08850079087D0784000008B5001E2018
:100D50007A08850079087D078400FF308000FD0A4D
:100D60000319FE0A8C2E2100B001B10110303002AF
:100D700031080318BD2E0319BF2EB11F1B2F7A088F
:100D80008500790830078400000A0319172FFF082F
:100D90000319052FB201B3011030320233080318D2
:100DA000D32E0319D52EB31FEC2E7C0885007B08AB
:100DB00084003208B400340884070008B5007A08BB
:100DC0008500790830078400350800060319EC2EE9
:100DD000B20A0319B30ACC2E1030320603193308B5
:100DE000031D172F7D08B4007A08850079083007A5
:100DF00084000008B5001E207A08850079082100CB
:100E000030078400FF308000172F7D08B4007A0877
:100E100085007908300784000008B5001E207A0894
:100E200085007908210030078400FF308000B00A77
:100E30000319B10AB62EFE0803196A2FB001B101D9
:100E40001030300231080318272F0319292FB11F42
:100E50006A2F7C0885007B0830078400000A03198C
:100E6000652FB201B30110303202330803183A2F54
:100E700003193C2FB31F532F7C0885007B08840087
:100E80003008B400340884070008B5007A088500EB
:100E9000790832078400350800060319532FB20A77
:100EA0000319B30A332F1030320603193308031D18
:100EB000652F7D08B4007C0885007B08300784001E
:100EC0000008B5007E08B60030202100B00A0319E2
:100ED000B10A202F7908B4007A08B5007B08B60063
:100EE0007C08B7001030B8005C2008007C082100A6
:100EF000BC007D08BD00FF30BE001030BF004420A4
:100F00007A088500790884000008FE007E08013A0E
:100F10000319922F033A883103198E28063A0319D0
:100F20008F298F2A7A088500790A84000008FF003B
:100F30007F08003A0319BF2F013A0319CF2F033A54
:100F40000319E02F013A0319F02F073A88310319EA
:100F50000128013A03191228033A03192428013AF7
:100F6000031936280F3A03194728013A031959285B
:100F7000033A03196A28013A03197C28912AB4011B
:100F80007A08850079088400023084070008B500DB
:100F90007C08B6007D08B7003E238831912A0430D2
:100FA000B4007A08850079088400023084070008BC
:100FB000B5007C08B6007D08B7009E248831912AD0
:100FC000B4017A088500790884000230840700089B
:100FD000B5007C08B6007D08B7007A228831912AD6
:100FE0000630B4007A08850079088400023084074E
:100FF0000008B5007C08B6007D08B7009E24883143
:10100000912AB4017A0885007908840002308407A7
:101010000008B5007C08B6007D08B7008031522179
:101020008831912A0130B4007A088500790884005B
:10103000023084070008B5007C08B6007D08B700C0
:10104000803152218831912A0230B4007A0885001B
:1010500079088400023084070008B5007C08B600D7
:101060007D08B700803152218831912AB4017A0875
:10107000850079088400023084070008B5007C08E8
:10108000B6007D08B700803181208831912A043074
:10109000B4007A08850079088400023084070008CB
:1010A000B5007C08B6007D08B70080315221883138
:1010B000912AB4017A0885007908840002308407F7
:1010C0000008B5007C08B6007D08B70080319E247A
:1010D0008831912A0130B4007A08850079088400AB
:1010E000023084070008B5007C08B6007D08B70010
:1010F00080319E248831912A0230B4007A0885001C
:1011000079088400023084070008B5007C08B60026
:101110007D08B70080319E248831912A7A088500A5
:10112000790A84000008B0003008003A0319BA2890
:10113000013A0319CC28033A0319DE28013A0319AE
:10114000EF28073A03190129013A03191229033A32
:1011500003192429013A031936290F3A031948299A
:10116000013A03195A29033A03196B29013A031961
:101170007D29912A0330B4007A088500790884001B
:10118000023084070008B5007C08B6007D08B7006F
:1011900080312F248831912A0430B4007A088500E8
:1011A00079088400023084070008B5007C08B60086
:1011B0007D08B70080312F248831912AB4017A0844
:1011C000850079088400023084070008B5007C0897
:1011D000B6007D08B70080311B228831912A063085
:1011E000B4007A088500790884000230840700087A
:1011F000B5007C08B6007D08B70080312F24883107
:10120000912AB4017A0885007908840002308407A5
:101210000008B5007C08B6007D08B7008031EF20DB
:101220008831912A0130B4007A0885007908840059
:10123000023084070008B5007C08B6007D08B700BE
:101240008031EF208831912A0230B4007A0885007D
:1012500079088400023084070008B5007C08B600D5
:101260007D08B7008031EF208831912A0330B40027
:101270007A08850079088400023084070008B500E8
:101280007C08B6007D08B7008031EF208831912AB4
:101290000430B4007A08850079088400023084079D
:1012A0000008B5007C08B6007D08B7008031EF204B
:1012B0008831912AB4017A088500790884000230C7
:1012C00084070008B5007C08B6007D08B7008031AF
:1012D0002F248831912A0130B4007A0885007908DA
:1012E0008400023084070008B5007C08B6007D0841
:1012F000B70080312F248831912A0230B4007A0857
:10130000850079088400023084070008B5007C0855
:10131000B6007D08B70080312F248831912A7A08E1
:101320008500790A84000008B1003108003A0319E9
:10133000BB29013A0319CC29033A0319DE29013AE2
:101340000319EF29073A0319012A013A0319122A4E
:10135000033A0319242A013A0319362A0F3A0319CA
:10136000482A013A03195A2A033A03196B2A013A07
:1013700003197D2A912AB4017A088500790884002E
:10138000023084070008B5007C08B6007D08B7006D
:101390008031B8238831912A0430B4007A0885005E
:1013A00079088400023084070008B5007C08B60084
:1013B0007D08B70080310D258831912AB4017A0863
:1013C000850079088400023084070008B5007C0895
:1013D000B6007D08B7008031DC228831912A0630C2
:1013E000B4007A0885007908840002308407000878
:1013F000B5007C08B6007D08B70080310D25883126
:10140000912AB4017A0885007908840002308407A3
:101410000008B5007C08B6007D08B7008031B52112
:101420008831912A0130B4007A0885007908840057
:10143000023084070008B5007C08B6007D08B700BC
:101440008031B5218831912A0230B4007A088500B4
:1014500079088400023084070008B5007C08B600D3
:101460007D08B7008031B5218831912A0330B4005E
:101470007A08850079088400023084070008B500E6
:101480007C08B6007D08B7008031B5218831912AEB
:101490000430B4007A08850079088400023084079B
:1014A0000008B5007C08B6007D08B7008031B52182
:1014B0008831912AB4017A088500790884000230C5
:1014C00084070008B5007C08B6007D08B7008031AD
:1014D0000D258831912A0130B4007A0885007908F9
:1014E0008400023084070008B5007C08B6007D083F
:1014F000B70080310D258831912A0230B4007A0876
:10150000850079088400023084070008B5007C0853
:10151000B6007D08B70080310D258831912AB401CD
:101520000800B201B30110303202330803189A2ABE
:1015300003199C2AB31FAF2A7D0885007C08320757
:101540008400000A0319AB2A7D0885007C08320755
:1015500084007B088007B20A0319B30A932A063075
:10156000B4000800E501E601803065026608031852
:10157000BB2A0319BD2AE61F080064082100B40035
:10158000200065082100B50080311E20E50A0319FE
:10159000E60A8831B42A6408EB006508EC006608A6
:1015A000ED006708EE006808003C0318F92A6C0893
:1015B00085006B088400EB0A0319EC0A0008E900B7
:1015C0006E0885006D088400ED0A0319EE0A000814
:1015D000EA006A0869060319F72A6A08690203180B
:1015E000F42AFF30EF0008000130EF000800E803A4
:1015F000D32AEF010800650885006408840080088C
:10160000031D362B0030FA002030F9005808FB008B
:1016100000305505FD0056080139FE00FF01FD08A8
:101620000319FF0AFE08031DFF01FC01FF0803194F
:10163000FC0A803187260030FA003030F9002000A3
:101640005A08FB0000305505FD0056080439FE001D
:10165000FF01FD080319FF0AFE08031DFF01FC013D
:10166000FF080319FC0A87268831322C20305505E3
:101670000030031956050319932B6408F900650817
:10168000FA000C30FB000030FD006830FC008031B7
:1016900076273408F800F808031D5F2B2000640843
:1016A000F9006508FA00FF30FB003C30FC00003018
:1016B000FE006830FD0080317F250630F8004030A4
:1016C0002000550500300319560588310319C22B37
:1016D000E601E7010630660267080318712B03195B
:1016E000732BE71F902B003085006830840066085C
:1016F0008407000A03198C2B0030850068308400B1
:101700006608840700080C3EF9006830840066080B
:101710000A3E840779088000E60A0319E70A6A2B63
:101720001030F800C22BD61EB22BE601E7011030B4
:101730006602670803189E2B0319A02BE71FAF2B27
:101740006608303EF9000030850068308400660885
:10175000840779088000E60A0319E70A972B1030FE
:10176000F800C22B6408F9006508FA00FF30FB009E
:101770002430FC000030FE006830FD0080317F2501
:101780001030F80000302100BD00A030BC00FF3058
:10179000BE001030BF00803144200030B500A030C2
:1017A000B4000030B7006830B6007808B8005C209C
:1017B0000030FA002030F9000030FC00A030FB00BF
:1017C00020005808FD00FE01003055052100B00042
:1017D0002000560802392100B100B201B0080319F7
:1017E000B20AB108031DB201FF01B2080319FF0AD2
:1017F000B3261030200055050030031956058831F6
:101800000319322C6408F9006508FA000130FB0066
:101810002430FC000030FE00A030FD0080317F2528
:101820000030FA003030F9000030FC00A030FB003E
:1018300020005A08FD005B08FE000030550521001D
:10184000B0002000560808392100B100B201B008EC
:101850000319B20AB108031DB201FF01B20803194E
:10186000FF0AB3262000650885006408840000088C
:10187000C400840A0008C500840A0008C6000800E5
:1018800020000C110E140C150E10DC01FF30DD00D1
:10189000DE010130DF00E001E101E201E301E401EA
:1018A000E5011030640265080318582C03195A2CFE
:1018B000E51F632D0C110C158C1A622C0C1A622C6E
:1018C0008E1D9A2C5D0A031D872C6408DD005708C5
:1018D000640603196508031D6F2C4408DC008C1E88
:1018E000742C0130E800752CE8010C1E7A2C0230B3
:1018F000E6007B2CE6016608E8048E1D822C04308D
:10190000E700832CE70167086804DC049A2C561E64
:101910009A2CDE08031D9A2C8C1E912C0130DE00BF
:101920009A2C0C1E962C0230DE009A2C8E1D9A2CBE
:101930000330DE008E1AA32C8E1C5A2D640EF03953
:101940000F38D9005A2D8E1CFF2CE30A5F08400582
:10195000E60060084105E70061084205E80062080A
:101960004305E90000306604670468046904FF3930
:10197000031D5A2D5F08C0046008C1046108C20439
:101980006208C304003085002030840064088407A6
:10199000000A03195A2D0130550500300319560568
:1019A0000319E72C58082100B400200000308500FE
:1019B000203084006408840700082100B50020005E
:1019C00059082100B6008031302088315A2D083066
:1019D000550500300319560503195A2D58082100E2
:1019E000B4002000003085002030840064088407A3
:1019F00000082100B50080311E2088315A2D5F0873
:101A00004005031D0F2D60084105031D0F2D6108C2
:101A10004205031D0F2D6208430503195A2D5F0966
:101A2000E6006009E7006109E8006209E90066086C
:101A3000C0056708C1056808C2056908C30500300C
:101A400085002030840064088407000A03195A2D99
:101A5000043055050030031956050319442D580864
:101A60002100B4002000003085002030840064088C
:101A7000840700082100B500200059082100B600A5
:101A80008031302088315A2D02305505003003193D
:101A9000560503195A2D58082100B40020000030C3
:101AA0008500203084006408840700082100B50008
:101AB00080311E20DF35E00DE10DE20DE40A03194F
:101AC000E50A8831512C8E1AAC2D5D085706031992
:101AD000C32D5D08003A0319802D023A0319852DA4
:101AE000063A03198A2D013A03198F2D023A031978
:101AF000942D0E3A0319992D023A03199E2DC32DE8
:101B00004708D5004808D600C32D4908D5004A0823
:101B1000D600C32D4B08D5004C08D600C32D4D0868
:101B2000D5004E08D600C32D4F08D5005008D6006A
:101B3000C32D5108D5005208D600C32D5808E40023
:101B4000B222103055050030031956050319C32D74
:101B50005A08E400B222C32D023063020318C32DD9
:101B60000030E5005C30E4000030E7004430E6007F
:101B70000330E800CB22EF080319C32D0030E50045
:101B80005C30E400FB225D08D700080020009114BF
:101B90002100911023001F129F159F101F101E136C
:101BA0009E161E121E119D171D131D129C010F3033
:101BB0009B0008005C08003C5D080318031DDD1B4A
:101BC00008000E15F430DE00803104200E11F430D0
:101BD000DE000420DC080319DD03DC038831DA2D84
:101BE000723021009900013024008C0020308E00DA
:101BF0002100951330308C002A308E0023008C0198
:101C00008E01C62501302000DC00DD01DA25003020
:101C10002100BD002030BC00FF30BE001030BF00EE
:101C2000803144200030BD003030BC00FF30BE00A9
:101C30001030BF0044208831402488311B2E200002
:101C4000C001C101C201C301FF30D700D8017F30FC
:101C5000D9000130DA007F30DB00C401FF30C5005D
:101C6000C6010C30C7000230C8006C30C900123009
:101C7000CA006C30CB001330CC001330CD000F30D5
:101C8000CE001330CF001F30D0001330D1001730FA
:101C9000D2001330D3002D30D4004708D5004808B7
:061CA000D6008831F02D92
:020000040001F9
:02000E00A4FF4D
:02001000FFDE11
:00000001FF
